:100000000C943D000C94D91A0C94D91A0C94D91A5A
:100010000C94D91A0C94D91A0C94D91A0C94D91A94
:100020000C94D91A0C94D91A0C94D91A0C94D91A84
:100030000C94D91A0C94D91A0C94D91A0C94D91A74
:100040000C94D91A0C94D91A0C94D91A0C94D91A64
:100050000C94D91A0C94D91A0C94D91A0C94D91A54
:100060000C94D91A0C94D91A0100089880089808A1
:10007000BC0035C008BC08BD800011241FBECFEFF6
:10008000D8E0DEBFCDBFE8E6F0E040E017C0B591B4
:10009000A59135912591059107FD0CC0959185910C
:1000A000EF01F92FE82F05900D92A217B307D9F7AA
:1000B000FE0104C01D92A217B307E1F7E937F40768
:0E00C00031F70E942F180C94771AF894FFCF96
:1000CE002F923F924F925F926F927F928F929F925A
:1000DE00AF92BF92CF92DF92EF92FF920F931F9348
:1000EE00CF93DF93CDB7DEB7C85DD5430FB6F89487
:1000FE00DEBF0FBECDBFCD52DA4C8883C35DD54374
:10010E00CC52DA4C9883C45DD543CB52DA4C68831B
:10011E00C55DD543CA52DA4C7883C65DD543C95204
:10012E00DA4C4883C75DD543C852DA4C5883C85D54
:10013E00D543C354DA4C39832883CD5BD54384E24F
:10014E00E8E9F8E0DE01A35ABB4C01900D928A95C6
:10015E00E1F79E012B5C304DC757DB4C398328836A
:10016E00C958D443CE018F549E4CCD57DB4C998346
:10017E008883C358D443F90180E090E0A0E8BFE340
:10018E0081939193A193B193CD57DB4C2881398103
:10019E00C358D443E217F30799F7C153DA4C1882C8
:1001AE00CF5CD543C053DA4C1882C05DD543CF52D5
:1001BE00DA4C1882C15DD543CE52DA4C1882C25D3C
:1001CE00D543C553DA4C19821882CB5CD543CE0188
:1001DE008754934DCB57DB4C99838883C558D443B2
:1001EE00DE01A35AB94EC557DB4CB983A883CB5851
:1001FE00D443FE01E752F74EC957DB4CF983E8832F
:10020E00C758D4439E012B503D4CC353DA4C39830F
:10021E002883CD5CD5438853984FCF57DB4C9983B9
:10022E008883C158D443C357DB4C39832883CD58B8
:10023E00D443C35ADB4CF881CD55D443C955DB4C5E
:10024E00F883C75AD443C25ADB4C2881CE55D443C7
:10025E00C855DB4C2883C85AD443C15ADB4C38816D
:10026E00CF55D443C755DB4C3883C95AD443C05AF3
:10027E00DB4C8881C056D443C655DB4C8883CA5AA2
:10028E00D443CF59DB4C88819981AA81BB81C15659
:10029E00D443C553DB4C88839983AA83BB83CB5C41
:1002AE00D443CB59DB4C88819981AA81BB81C55639
:1002BE00D443C953DB4C88839983AA83BB83C75C21
:1002CE00D443C759DB4C88819981AA81BB81C95619
:1002DE00D443C951DB4C88839983AA83BB83C75E01
:1002EE00D443C359DB4C88819981AA81BB81CD56F9
:1002FE00D443C551DB4C88839983AA83BB83CB5EE1
:10030E00D443CF58DB4C88819981AA81BB81C157D8
:10031E00D443C151DB4C88839983AA83BB83CF5EC0
:10032E00D443CB58DB4C88819981AA81BB81C557B8
:10033E00D443C154DA4C88839983AA83BB83CF5BA1
:10034E00D543C758DB4C88819981AA81BB81C95797
:10035E00D443CD53DA4C88839983AA83BB83C35C81
:10036E00D543C358DB4C88819981AA81BB81CD5777
:10037E00D443C953DA4C88839983AA83BB83C75C61
:10038E00D543CD53DA4C288139814A815B81C35CD8
:10039E00D543CA01B9010E94D21A6B017C019B019F
:1003AE00AC01CD53DA4C688179818A819B81C35C23
:1003BE00D5430E94D21A20E030E040EC50E40E9477
:1003CE00CE1A9B01AC01CD53DA4C688179818A81BA
:1003DE009B81C35CD5430E94991ACD51DB4C688337
:1003EE0079838A839B83C35ED443C154DA4C2881BC
:1003FE0039814A815B81CF5BD543CA01B9010E9425
:10040E00D21A4B015C019B01AC01C154DA4C6881DC
:10041E0079818A819B81CF5BD5430E94D21A20E0DD
:10042E0030E040EC50E40E94CE1A9B01AC01C15466
:10043E00DA4C688179818A819B81CF5BD5430E949A
:10044E00991ACD53DB4C688379838A839B83C35C73
:10045E00D443C953DA4C288139814A815B81C75C08
:10046E00D543CA01B9010E94D21A2B013C019B014E
:10047E00AC01C953DA4C688179818A819B81C75C52
:10048E00D5430E94D21A20E030E040EC50E40E94A6
:10049E00CE1A9B01AC01C953DA4C688179818A81ED
:1004AE009B81C75CD5430E94991AC956DB4C688361
:1004BE0079838A839B83C759D44320E030E040E0A0
:1004CE005FE3C701B6010E94D21A9B01AC0160E046
:1004DE0070E080E89FE30E94991AC555DB4C688353
:1004EE0079838A839B83CB5AD44320E030E040E06B
:1004FE005FE3C501B4010E94D21A9B01AC0160E01A
:10050E0070E080E89FE30E94991AC154DB4C688327
:10051E0079838A839B83CF5BD44320E030E040E035
:10052E005FE3C301B2010E94D21A9B01AC0160E0ED
:10053E0070E080E89FE30E94991ACD55DB4C6883EA
:10054E0079838A839B83C35AD443C955DB4C288154
:10055E00C75AD443C855DB4C3881C85AD443C75503
:10056E00DB4C4881C95AD443C655DB4C5881CA5A14
:10057E00D443C955DB4C6881C75AD443C855DB4CAC
:10058E007881C85AD443C755DB4C8881C95AD443A5
:10059E00C655DB4C9881CA5AD4430E94D21ACF5DFD
:1005AE00DA4C688379838A839B83C152D543CD53BA
:1005BE00DB4C288139814A815B81C35CD443C553AE
:1005CE00DB4C688179818A819B81CB5CD4430E940C
:1005DE00D21AC35FDA4C688379838A839B83CD50AA
:1005EE00D543C553DB4C288139814A815B81CB5C75
:1005FE00D443C955DB4C6881C75AD443C855DB4C2C
:10060E007881C85AD443C755DB4C8881C95AD44324
:10061E00C655DB4C9881CA5AD4430E94D21A4B015C
:10062E005C019B01AC01C154DB4C688179818A81EC
:10063E009B81CF5BD4430E94D21AC750DB4C688398
:10064E0079838A839B83C95FD4439B01AC010E944B
:10065E00D21AC35DDA4C688379838A839B83CD5229
:10066E00D543C953DB4C288139814A815B81C75CF4
:10067E00D443C955DB4C6881C75AD443C855DB4CAB
:10068E007881C85AD443C755DB4C8881C95AD443A4
:10069E00C655DB4C9881CA5AD4430E94D21AC15512
:1006AE00DB4C688379838A839B83CF5AD4439B0127
:1006BE00AC01C956DB4C688179818A819B81C7590F
:1006CE00D4430E94D21ACF5EDA4C688379838A8330
:1006DE009B83C151D543C953DB4C288139814A8153
:1006EE005B81C75CD443C553DB4C688179818A81B9
:1006FE009B81CB5CD4430E94D21AC157DB4C6883DA
:10070E0079838A839B83CF58D443C956DB4C288187
:10071E0039814A815B81C759D443CD53DB4C688103
:10072E0079818A819B81C35CD4430E94D21A6B016A
:10073E007C01C154DB4C288139814A815B81CF5BBE
:10074E00D443CD51DB4C688179818A819B81C35E14
:10075E00D4430E94D21ACD55DB4C288139814A816F
:10076E005B81C35AD4430E94D21A9B01AC01C701CC
:10077E00B6010E94991AC157DB4C288139814A81F2
:10078E005B81CF58D4430E94D21ACF5CDA4C688377
:10079E0079838A839B83C153D543A5019401C953A1
:1007AE00DB4C688179818A819B81C75CD4430E942E
:1007BE00D21ACD54DB4C688379838A839B83C35BC7
:1007CE00D4439B01AC01C154DB4C688179818A8191
:1007DE009B81CF5BD4430E94D21AC555DB4C288136
:1007EE0039814A815B81CB5AD4430E94D21ACD55AE
:1007FE00DB4C288139814A815B81C35AD4430E94E4
:10080E00D21A9B01AC010E94D21ACB5CDA4C6883DF
:10081E0079838A839B83C553D543CF5DDA4C288178
:10082E0039814A815B81C152D543C553DB4C688106
:10083E0079818A819B81CB5CD4430E94D21ACD569A
:10084E00DB4C688379838A839B83C359D4439B0192
:10085E00AC01C553DB4C688179818A819B81CB5C6D
:10086E00D4430E94D21AC954DB4C688379838A839D
:10087E009B83C75BD4439B01AC01C154DB4C6881A5
:10088E0079818A819B81CF5BD4430E94D21AC15455
:10089E00DB4C288139814A815B81CF5BD4430E9436
:1008AE00D21AC75CDA4C688379838A839B83C953D7
:1008BE00D543CF5DDA4C288139814A815B81C152A3
:1008CE00D543C955DB4C6881C75AD443C855DB4C58
:1008DE007881C85AD443C755DB4C8881C95AD44352
:1008EE00C655DB4C9881CA5AD4430E94D21ACB5DAE
:1008FE00DA4C688379838A839B83C552D5439B01E7
:10090E00AC01C553DB4C688179818A819B81CB5CBC
:10091E00D4430E94D21AC553DB4C288139814A81B7
:10092E005B81CB5CD4430E94D21AC554DB4C6883E6
:10093E0079838A839B83CB5BD4439B01AC01C154E7
:10094E00DB4C688179818A819B81CF5BD4430E9485
:10095E00D21AC154DB4C288139814A815B81CF5B2D
:10096E00D4430E94D21AC35CDA4C688379838A839B
:10097E009B83CD53D543CD55DB4C288139814A819C
:10098E005B81C35AD443C154DB4C688179818A811F
:10099E009B81CF5BD4430E94D21ACD51DB4C288170
:1009AE0039814A815B81C35ED4430E94D21A9B0176
:1009BE00AC01C701B6010E94991A2B013C019B01A3
:1009CE00AC01C157DB4C688179818A819B81CF58FC
:1009DE00D4430E94D21ACF5BDA4C688379838A8320
:1009EE009B83C154D543C554DB4C288139814A8140
:1009FE005B81CB5BD443C953DB4C688179818A819F
:100A0E009B81C75CD4430E94D21AC953DB4C288108
:100A1E0039814A815B81C75CD4430E94D21ACD557D
:100A2E00DB4C288139814A815B81C35AD4430E94B1
:100A3E00D21ACD55DB4C288139814A815B81C35A4C
:100A4E00D4430E94D21AC555DB4C288139814A8184
:100A5E005B81CB5AD4430E94D21AC555DB4C2881F8
:100A6E0039814A815B81CB5AD4430E94D21AC15438
:100A7E00DB4C288139814A815B81CF5BD4430E9454
:100A8E00D21AC154DB4C288139814A815B81CF5BFC
:100A9E00D4430E94D21ACB5BDA4C688379838A8363
:100AAE009B83C554D543C154DB4C288139814A817F
:100ABE005B81CF5BD443C553DB4C688179818A81DE
:100ACE009B81CB5CD4430E94D21AC75BDA4C6883FD
:100ADE0079838A839B83C954D543C956DB4C2881BD
:100AEE0039814A815B81C759D443C953DB4C688134
:100AFE0079818A819B81C75CD4430E94D21AC35BE1
:100B0E00DA4C688379838A839B83CD54D543C95449
:100B1E00DB4C288139814A815B81C75BD443C95341
:100B2E00DB4C688179818A819B81C75CD4430E94AA
:100B3E00D21AC954DB4C688379838A839B83C75B43
:100B4E00D4439B01AC01C953DB4C688179818A8106
:100B5E009B81C75CD4430E94D21AC554DB4C688378
:100B6E0079838A839B83CB5BD4439B01AC01CD55A8
:100B7E00DB4C688179818A819B81C35AD4430E9460
:100B8E00D21ACD55DB4C288139814A815B81C35AFB
:100B9E00D4430E94D21AC556DB4C688379838A836C
:100BAE009B83CB59D4439B01AC01C555DB4C68816B
:100BBE0079818A819B81CB5AD4430E94D21AC55522
:100BCE00DB4C288139814A815B81CB5AD4430E9408
:100BDE00D21AC154DB4C288139814A815B81CF5BAB
:100BEE00D4430E94D21AC154DB4C288139814A81E8
:100BFE005B81CF5BD4430E94D21ACB5EDA4C688302
:100C0E0079838A839B83C551D543C551DB4C28819B
:100C1E0039814A815B81CB5ED443C955DB4C6881F7
:100C2E00C75AD443C855DB4C7881C85AD443C755EC
:100C3E00DB4C8881C95AD443C655DB4C9881CA5ABD
:100C4E00D4430E94D21AC156DB4C688379838A83BF
:100C5E009B83CF59D4439B01AC01C953DB4C6881B4
:100C6E0079818A819B81C75CD4430E94D21A6B0121
:100C7E007C019B01AC01C956DB4C688179818A816C
:100C8E009B81C759D4430E94D21AC153DB4C68834F
:100C9E0079838A839B83CF5CD4439B01AC01C95675
:100CAE00DB4C688179818A819B81C759D4430E942C
:100CBE00D21ACF5ADA4C688379838A839B83C155C3
:100CCE00D543A7019601CD55DB4C688179818A8188
:100CDE009B81C35AD4430E94D21ACD55DB4C288136
:100CEE0039814A815B81C35AD4430E94D21AC555B9
:100CFE00DB4C288139814A815B81CB5AD4430E94D7
:100D0E00D21AC555DB4C288139814A815B81CB5A79
:100D1E00D4430E94D21ACB5ADA4C688379838A83E1
:100D2E009B83C555D543C151DB4C288139814A81FE
:100D3E005B81CF5ED443C955DB4C6881C75AD4431F
:100D4E00C855DB4C7881C85AD443C755DB4C8881D3
:100D5E00C95AD443C655DB4C9881CA5AD4430E9413
:100D6E00D21AC553DB4C288139814A815B81CB5C19
:100D7E00D4430E94D21AC154DB4C288139814A8156
:100D8E005B81CF5BD4430E94D21ACD52DB4C688379
:100D9E0079838A839B83C35DD4439B01AC01C9567F
:100DAE00DB4C688179818A819B81C759D4430E942B
:100DBE00D21AC75ADA4C688379838A839B83C955C2
:100DCE00D543C951DB4C288139814A815B81C75E8D
:100DDE00D443C553DB4C688179818A819B81CB5C7E
:100DEE00D4430E94D21AC75DDA4C688379838A8312
:100DFE009B83C952D5439B01AC01C953DB4C68811F
:100E0E0079818A819B81C75CD4430E94D21A6B017F
:100E1E007C019B01AC01C956DB4C688179818A81CA
:100E2E009B81C759D4430E94D21AC952DB4C6883A6
:100E3E0079838A839B83C75DD4439B01AC01C956DA
:100E4E00DB4C688179818A819B81C759D4430E948A
:100E5E00D21ACD53DB4C288139814A815B81C35C28
:100E6E00D4430E94D21AC35ADA4C688379838A8398
:100E7E009B83CD55D543A7019601CD55DB4C68819B
:100E8E0079818A819B81C35AD4430E94D21A6B0105
:100E9E007C019B01AC01CD55DB4C688179818A8147
:100EAE009B81C35AD4430E94D21AC555DB4C28816C
:100EBE0039814A815B81CB5AD4430E94D21AC555DF
:100ECE00DB4C288139814A815B81CB5AD4430E9405
:100EDE00D21ACD53DB4C288139814A815B81C35CA8
:100EEE00D4430E94D21ACF59DA4C688379838A830D
:100EFE009B83C156D543A7019601C154DB4C688133
:100F0E0079818A819B81CF5BD4430E94D21A6B0177
:100F1E007C019B01AC01C956DB4C688179818A81C9
:100F2E009B81C759D4430E94D21ACD51DB4C2881E4
:100F3E0039814A815B81C35ED4430E94D21ACB5958
:100F4E00DA4C688379838A839B83C556D543C55310
:100F5E00DB4C288139814A815B81CB5CD443CA0149
:100F6E00B9010E94D21AC553DB4C288139814A81BE
:100F7E005B81CB5CD4430E94D21AC955DB4C2881CD
:100F8E00C75AD443C855DB4C3881C85AD443C755C9
:100F9E00DB4C4881C95AD443C655DB4C5881CA5ADA
:100FAE00D4430E94D21AC953DB4C288139814A811D
:100FBE005B81C75CD4430E94D21ACD55DB4C28818D
:100FCE0039814A815B81C35AD4430E94D21ACD55CE
:100FDE00DB4C288139814A815B81C35AD4430E94FC
:100FEE00D21AC555DB4C288139814A815B81CB5A97
:100FFE00D4430E94D21AC555DB4C288139814A81CF
:10100E005B81CB5AD4430E94D21AC154DB4C288147
:10101E0039814A815B81CF5BD4430E94D21AC1547D
:10102E00DB4C288139814A815B81CF5BD4430E949E
:10103E00D21AC759DA4C688379838A839B83C9563F
:10104E00D543C153DB4C288139814A815B81CF5C0A
:10105E00D443CD52DB4C688179818A819B81C35DFB
:10106E00D4430E94991AC359DA4C688379838A83D0
:10107E009B83CD56D543C952DB4C288139814A8199
:10108E005B81C75DD443CD53DB4C688179818A8106
:10109E009B81C35CD4430E94D21ACF58DA4C68832A
:1010AE0079838A839B83C157D543A7019601CD517E
:1010BE00DB4C688179818A819B81C35ED4430E9417
:1010CE00D21ACB58DA4C688379838A839B83C557AF
:1010DE00D543C953DB4C288139814A815B81C75C7A
:1010EE00D443CA01B9010E94D21AC953DB4C2881DC
:1010FE0039814A815B81C75CD4430E94D21AA50113
:10110E0094010E94D21ACD55DB4C288139814A8137
:10111E005B81C35AD4430E94D21ACD55DB4C288131
:10112E0039814A815B81C35AD4430E94D21AC55574
:10113E00DB4C288139814A815B81CB5AD4430E9492
:10114E00D21AC555DB4C288139814A815B81CB5A35
:10115E00D4430E94D21AC154DB4C288139814A8172
:10116E005B81CF5BD4430E94D21AC758DA4C688396
:10117E0079838A839B83C957D543C951DB4C288118
:10118E0039814A815B81C75ED443CA01B9010E948D
:10119E009A1AC358DA4C688379838A839B83CD5716
:1011AE00D543CD53DB4C288139814A815B81C35CA9
:1011BE00D443CA01B9010E949A1ACF57DA4C6883F8
:1011CE0079838A839B83C158D543CD56DB4C2881C6
:1011DE0039814A815B81C359D443C154DB4C688148
:1011EE0079818A819B81CF5BD4430E94D21AC154EC
:1011FE00DB4C288139814A815B81CF5BD4430E94CD
:10120E00D21ACB57DA4C688379838A839B83C5586D
:10121E00D543A3019201C301B2010E949A1AC75786
:10122E00DA4C688379838A839B83C958D543CD561C
:10123E00DB4C288139814A815B81C359D443C95320
:10124E00DB4C688179818A819B81C75CD4430E9483
:10125E00D21ACD55DB4C288139814A815B81C35A24
:10126E00D4430E94D21A2B013C019B01AC01CD55F7
:10127E00DB4C688179818A819B81C35AD4430E9459
:10128E00D21A9B01AC010E949A1AC555DB4C2881DB
:10129E0039814A815B81CB5AD4430E94D21AC555FB
:1012AE00DB4C288139814A815B81CB5AD4430E9421
:1012BE00D21AC154DB4C288139814A815B81CF5BC4
:1012CE00D4430E94D21AC154DB4C288139814A8101
:1012DE005B81CF5BD4430E94D21AC357DA4C68832A
:1012EE0079838A839B83CD58D543A5019401C55339
:1012FE00DB4C688179818A819B81CB5CD4430E94CF
:10130E00D21A6B017C019B01AC01C154DB4C68818C
:10131E0079818A819B81CF5BD4430E94D21AC154BA
:10132E00DB4C288139814A815B81CF5BD4430E949B
:10133E00D21ACF56DA4C688379838A839B83C1593C
:10134E00D543C956DB4C288139814A815B81C75907
:10135E00D443CA01B9010E949A1AC75EDA4C688357
:10136E0079838A839B83C951D543A7019601C953BB
:10137E00DB4C688179818A819B81C75CD4430E9452
:10138E00D21ACD55DB4C288139814A815B81C35AF3
:10139E00D4430E94D21ACD55DB4C288139814A8123
:1013AE005B81C35AD4430E94D21AC555DB4C2881A7
:1013BE0039814A815B81CB5AD4430E94D21AC555DA
:1013CE00DB4C288139814A815B81CB5AD4430E9400
:1013DE00D21AC154DB4C288139814A815B81CF5BA3
:1013EE00D4430E94D21AC154DB4C288139814A81E0
:1013FE005B81CF5BD4430E94D21ACB56DA4C688302
:10140E0079838A839B83C559D543CD54DB4C288180
:10141E0039814A815B81C35BD443C953DB4C6881FC
:10142E0079818A819B81C75CD4430E94D21ACD55A3
:10143E00DB4C288139814A815B81C35AD4430E9497
:10144E00D21ACD55DB4C288139814A815B81C35A32
:10145E00D4430E94D21AC555DB4C288139814A816A
:10146E005B81CB5AD4430E94D21AC555DB4C2881DE
:10147E0039814A815B81CB5AD4430E94D21AC1541E
:10148E00DB4C288139814A815B81CF5BD4430E943A
:10149E00D21AC756DA4C688379838A839B83C959DB
:1014AE00D543C156DB4C288139814A815B81CF59A6
:1014BE00D443CD53DB4C688179818A819B81C35C97
:1014CE00D4430E94D21AC356DA4C688379838A8336
:1014DE009B83CD59D543C154DB4C288139814A8138
:1014EE005B81CF5BD443CA01B9010E94D21A4B0172
:1014FE005C01C954DB4C288139814A815B81C75B11
:10150E00D443CD55DB4C688179818A819B81C35A46
:10151E00D4430E94D21ACD55DB4C288139814A81A1
:10152E005B81C35AD4430E94D21AC555DB4C288125
:10153E0039814A815B81CB5AD4430E94D21AC55558
:10154E00DB4C288139814A815B81CB5AD4430E947E
:10155E00D21A6B017C01A5019401C154DB4C688148
:10156E0079818A819B81CF5BD4430E94D21A9B01E1
:10157E00AC01C701B6010E94D21ACF55DA4C68836E
:10158E0079838A839B83C15AD543CD51DB4C288105
:10159E0039814A815B81C35ED443CA01B9010E947D
:1015AE009A1ACB55DA4C688379838A839B83C55A02
:1015BE00D543C555DB4C288139814A815B81CB5A95
:1015CE00D443CA01B9010E94D21AC555DB4C2881F9
:1015DE0039814A815B81CB5AD4430E94D21AC556B7
:1015EE00DB4C288139814A815B81CB59D4430E94DF
:1015FE00D21AC154DB4C288139814A815B81CF5B81
:10160E00D4430E94D21AC154DB4C288139814A81BD
:10161E005B81CF5BD4430E94D21AC755DA4C6883E4
:10162E0079838A839B83C95AD543A3019201C555F9
:10163E00DB4C688179818A819B81CB5AD4430E948D
:10164E00D21AC154DB4C288139814A815B81CF5B30
:10165E00D4430E94D21AC355DA4C688379838A83A5
:10166E009B83CD5AD543CD55DB4C288139814A8198
:10167E005B81C35AD443CA01B9010E94D21ACD5517
:10168E00DB4C288139814A815B81C35AD4430E9445
:10169E00D21AC554DB4C288139814A815B81CB5BE0
:1016AE00D4430E94D21AC555DB4C288139814A8118
:1016BE005B81CB5AD4430E94D21AC555DB4C28818C
:1016CE0039814A815B81CB5AD4430E94D21AA5013B
:1016DE0094010E94D21ACF54DA4C688379838A839C
:1016EE009B83C15BD543C154DB4C288139814A8130
:1016FE005B81CF5BD443C956DB4C688179818A818B
:10170E009B81C759D4430E94D21ACD51DB4C2881FC
:10171E0039814A815B81C35ED4430E94D21A6B0128
:10172E007C01CD55DB4C288139814A815B81C35ABE
:10173E00D443CD53DB4C688179818A819B81C35C14
:10174E00D4430E94D21A9B01AC01C701B6010E947C
:10175E009A1AC157DB4C288139814A815B81CF5857
:10176E00D4430E94D21ACB54DA4C688379838A838D
:10177E009B83C55BD543C155DB4C288139814A819A
:10178E005B81CF5AD443CD55DB4C688179818A81F8
:10179E009B81C35AD4430E94D21AC754DA4C688331
:1017AE0079838A839B83C95BD543CD52DA4C98816A
:1017BE00C35DD543C950DB4C9883C75FD443CC522D
:1017CE00DA4CA881C45DD543C850DB4CA883C85FF2
:1017DE00D443CB52DA4CB881C55DD543CD50DB4CEA
:1017EE00B883C35FD443CA52DA4CE881C65DD54391
:1017FE00CC50DB4CE883C45FD443C952DA4CF88139
:10180E00C75DD543CB50DB4CF883C55FD443C8527C
:10181E00DA4C2881C85DD543CA50DB4C2883C65F9D
:10182E00D443CE018B5A944EC95FDA4C9983888388
:10183E00C750D543DE01AF52B24ECB5FDA4CB983FF
:10184E00A883C550D543FE01E35BFF4DCD5FDA4C57
:10185E00F983E883C350D5439E0127533D4DCF5F97
:10186E00DA4C39832883C150D5438051964FC150ED
:10187E00DB4C99838883CF5FD443A85FB440C75FA6
:10188E00DA4CB983A883C950D543E05FF9401F01F4
:10189E002051364FC55FDA4C39832883CB50D54360
:1018AE008051964FC350DB4C99838883CD5FD443D0
:1018BE0000E010E0C950DB4CE881F981C75FD443EA
:1018CE0081919191A191B191C950DB4CF983E8833B
:1018DE00C75FD443C155DB4C88839983AA83BB83EE
:1018EE00CF5AD443C951DB4C288139814A815B815F
:1018FE00C75ED443BC01CD010E94991A6B017C01D5
:10190E00CD50DB4CE881F981C35FD4438191919135
:10191E00A191B191CD50DB4CF983E883C35FD443E1
:10192E00C556DB4C88839983AA83BB83CB59D4439A
:10193E00C551DB4C288139814A815B81CB5ED44312
:10194E00BC01CD010E94991A4B015C019B01AC01B7
:10195E00C955DB4C6881C75AD443C855DB4C7881D6
:10196E00C85AD443C755DB4C8881C95AD443C6558F
:10197E00DB4C9881CA5AD4430E94D21A2B013C01E7
:10198E00C35FDA4C288139814A815B81CD50D543C2
:10199E00C701B6010E94D21A9B01AC01C301B2016C
:1019AE000E94991AC157DB4C688379838A839B8383
:1019BE00CF58D443CB50DB4CE881F981C55FD4437B
:1019CE0081919191A191B191CB50DB4CF983E88338
:1019DE00C55FD443C156DB4C88839983AA83BB83EE
:1019EE00CF59D443C151DB4C288139814A815B8167
:1019FE00CF5ED443BC01CD010E94991AC750DB4C77
:101A0E00288139814A815B81C95FD4430E94D21AF1
:101A1E002B013C01CF5EDA4C288139814A815B81F2
:101A2E00C151D543C501B4010E94D21A9B01AC012C
:101A3E00C301B2010E94991A4B015C01CF5CDA4CD2
:101A4E00288139814A815B81C153D543C701B601D3
:101A5E000E94D21A9B01AC01C501B4010E949A1AD0
:101A6E004B015C01C350DB4CA881B981CD5FD443DF
:101A7E006D917D918D919D91C350DB4CB983A8835F
:101A8E00CD5FD4439B01AC010E94D21A2B013C01C5
:101A9E00A7019601C701B6010E94D21ACF5DDA4C9A
:101AAE00288139814A815B81C152D5430E94CE1A69
:101ABE006B017C01C157DB4C288139814A815B81E6
:101ACE00CF58D443CA01B9010E94D21AC35DDA4C71
:101ADE00288139814A815B81CD52D5430E94CE1A2D
:101AEE009B01AC01C701B6010E949A1A6B017C01E1
:101AFE00A5019401C501B4010E94D21ACB5CDA4C47
:101B0E00288139814A815B81C553D5430E94CE1A03
:101B1E009B01AC01C701B6010E949A1A9B01AC0150
:101B2E00C301B2010E94991AC55FDA4CE881F981AE
:101B3E00CB50D5436193719381939193C55FDA4CEA
:101B4E00F983E883CB50D543C556DB4C28813981C8
:101B5E004A815B81CB59D443C551DB4C6881798175
:101B6E008A819B81CB5ED4430E94991AC157DB4C6C
:101B7E00688379838A839B83CF58D443C155DB4CCA
:101B8E00288139814A815B81CF5AD443C951DB4CBC
:101B9E00688179818A819B81C75ED4430E94991A9C
:101BAE00CD56DB4C688379838A839B83C359D44398
:101BBE00C157DB4C288139814A815B81CF58D44390
:101BCE00C955DB4C6881C75AD443C855DB4C788164
:101BDE00C85AD443C755DB4C8881C95AD443C6551D
:101BEE00DB4C9881CA5AD4430E94D21A6B017C01F5
:101BFE00C35FDA4C288139814A815B81CD50D54350
:101C0E00CD56DB4C688179818A819B81C359D4433F
:101C1E000E94D21A9B01AC01C701B6010E94991A0B
:101C2E00CD54DB4C688379838A839B83C35BD44317
:101C3E009B01AC010E949A1AC153DB4C68837983D5
:101C4E008A839B83CF5CD443C156DB4C2881398178
:101C5E004A815B81CF59D443C151DB4C6881798174
:101C6E008A819B81CF5ED4430E94991AC954DB4C62
:101C7E00688379838A839B83C75BD443CF5BDA4CBB
:101C8E00288139814A815B81C154D543CD56DB4CC5
:101C9E00688179818A819B81C359D4430E94D21A6B
:101CAE006B017C01C750DB4C288139814A815B81F5
:101CBE00C95FD443C954DB4C688179818A819B8189
:101CCE00C75BD4430E94D21A9B01AC01C701B60177
:101CDE000E949A1A6B017C01CF5EDA4C2881398101
:101CEE004A815B81C151D543C157DB4C68817981F3
:101CFE008A819B81CF58D4430E94D21A9B01AC019A
:101D0E00C701B6010E94991A2B013C019B01AC013F
:101D1E000E94D21AC554DB4C688379838A839B83D5
:101D2E00CB5BD443C153DB4C288139814A815B8123
:101D3E00CF5CD443C157DB4C688179818A819B810A
:101D4E00CF58D4430E94D21AC75CDA4C288139810D
:101D5E004A815B81C953D5430E94CE1A6B017C0127
:101D6E00CD54DB4C288139814A815B81C35BD443DE
:101D7E00CA01B9010E94D21A9B01AC010E949A1AA3
:101D8E00C35CDA4C288139814A815B81CD53D543BE
:101D9E000E94CE1A9B01AC01C701B6010E94991A8E
:101DAE006B017C01CD56DB4C288139814A815B81E8
:101DBE00C359D443CA01B9010E94D21A9B01AC0186
:101DCE000E949A1ACB5DDA4C288139814A815B8157
:101DDE00C552D5430E94CE1A9B01AC01C701B60174
:101DEE000E94991A6B017C01C554DB4C2881398104
:101DFE004A815B81CB5BD443CA01B9010E949A1A16
:101E0E00CB5BDA4C288139814A815B81C554D5433D
:101E1E000E94CE1A9B01AC01C701B6010E94991A0D
:101E2E006B017C01C75BDA4C288139814A815B8169
:101E3E00C954D543C954DB4C688179818A819B8111
:101E4E00C75BD4430E94D21A4B015C01C35BDA4CD0
:101E5E00288139814A815B81CD54D543C157DB4CF2
:101E6E00688179818A819B81CF58D4430E94D21A8E
:101E7E009B01AC01C501B4010E94991A9B01AC01F2
:101E8E000E949A1AA30192010E94D21ACB5EDA4CDA
:101E9E00288139814A815B81C551D5430E94CE1A72
:101EAE009B01AC01C701B6010E949A1AD1016D9334
:101EBE007D938D939C931397C556DB4C2881398166
:101ECE004A815B81CB59D443C955DB4C6881C75AD3
:101EDE00D443C855DB4C7881C85AD443C755DB4C24
:101EEE008881C95AD443C655DB4C9881CA5AD4430B
:101EFE000E94D21AC556DB4C688379838A839B83F2
:101F0E00CB59D4439B01AC01C953DB4C6881798119
:101F1E008A819B81C75CD4430E94D21A4B015C011B
:101F2E009B01AC01C956DB4C688179818A819B810A
:101F3E00C759D4430E94D21ACD52DB4C68837983A1
:101F4E008A839B83C35DD443C156DB4C2881398180
:101F5E004A815B81CF59D443C955DB4C6881C75A3E
:101F6E00D443C855DB4C7881C85AD443C755DB4C93
:101F7E008881C95AD443C655DB4C9881CA5AD4437A
:101F8E000E94D21AC553DB4C288139814A815B816C
:101F9E00CB5CD4430E94D21AC154DB4C28813981C8
:101FAE004A815B81CF5BD4430E94D21AC156DB4C6F
:101FBE00688379838A839B83CF59D443C155DB4C85
:101FCE00288139814A815B81CF5AD443C553DB4C7A
:101FDE00688179818A819B81CB5CD4430E94D21A1D
:101FEE00C952DB4C688379838A839B83C75DD44354
:101FFE009B01AC01C953DB4C688179818A819B813D
:10200E00C75CD4430E94D21A6B017C019B01AC01C8
:10201E00C956DB4C688179818A819B81C759D4432B
:10202E000E94D21AC552DB4C688379838A839B83C4
:10203E00CB5DD443A7019601CD55DB4C68817981E8
:10204E008A819B81C35AD4430E94D21A6B017C01B0
:10205E009B01AC01C154DB4C688179818A819B81E3
:10206E00CF5BD4430E94D21AC152DB4C6883798372
:10207E008A839B83CF5DD443CD52DB4C288139813B
:10208E004A815B81C35DD443C956DB4C688179813B
:10209E008A819B81C759D4430E94D21A9B01AC01FD
:1020AE00CF5ADA4C688179818A819B81C155D5439B
:1020BE000E94991ACB5ADA4C288139814A815B8168
:1020CE00C555D5430E949A1AC35EDA4C688379834C
:1020DE008A839B83CD51D543A5019401CD55DB4C0D
:1020EE00688179818A819B81C35AD4430E94D21A16
:1020FE00CD55DB4C288139814A815B81C35AD4434B
:10210E000E94D21AC555DB4C288139814A815B81E8
:10211E00CB5AD4430E94D21AC555DB4C2881398143
:10212E004A815B81CB5AD4430E94D21A9B01AC01E7
:10213E00C35EDA4C688179818A819B81CD51D5430A
:10214E000E94991AC75ADA4C288139814A815B81DB
:10215E00C955D5430E94991A4B015C01C156DB4CFF
:10216E00288139814A815B81CF59D443C956DB4CD2
:10217E00688179818A819B81C759D4430E94D21A82
:10218E009B01AC01C501B4010E949A1AC35ADA4CE4
:10219E00288139814A815B81CD55D5430E94991A98
:1021AE004B015C01C552DB4C288139814A815B8130
:1021BE00CB5DD443C956DB4C688179818A819B8182
:1021CE00C759D4430E94D21ACD53DB4C2881398192
:1021DE004A815B81C35CD4430E94D21A9B01AC013D
:1021EE00C501B4010E949A1ACF59DA4C288139815F
:1021FE004A815B81C156D5430E94991A4B015C01FD
:10220E00A7019601CD55DB4C688179818A819B812E
:10221E00C35AD4430E94D21AC555DB4C288139814A
:10222E004A815B81CB5AD4430E94D21AC555DB4CEE
:10223E00288139814A815B81CB5AD4430E94D21ABC
:10224E00CD53DB4C288139814A815B81C35CD443F9
:10225E000E94D21A9B01AC01C501B4010E949A1AC8
:10226E00CB59DA4C288139814A815B81C556D543D9
:10227E000E949A1A6B017C01C152DB4C2881398174
:10228E004A815B81CF5DD443C956DB4C688179812D
:10229E008A819B81C759D4430E94D21ACD51DB4CFF
:1022AE00288139814A815B81C35ED4430E94D21A50
:1022BE009B01AC01C701B6010E94991A4B015C014A
:1022CE00C157DB4C288139814A815B81CF58D44379
:1022DE00CA01B9010E949A1AA50194010E94D21A4C
:1022EE009058C759DA4C288139814A815B81C95689
:1022FE00D5430E94CE1AC75FDA4CE881F981C950E6
:10230E00D5436193719381939193C75FDA4CF983AF
:10231E00E883C950D543C156DB4C288139814A81A7
:10232E005B81CF59D443C359DA4C688179818A8154
:10233E009B81CD56D5430E94991ACD52DB4C2881F4
:10234E0039814A815B81C35DD4430E949A1ACF586A
:10235E00DA4C288139814A815B81C157D5430E946D
:10236E009A1A6B017C01C552DB4C288139814A8156
:10237E005B81CB5DD443CD53DB4C688179818A81FF
:10238E009B81C35CD4430E94D21A9B01AC01C7014E
:10239E00B6010E94991ACB58DA4C288139814A81AC
:1023AE005B81C557D5430E94991A6B017C01C152BE
:1023BE00DB4C288139814A815B81CF5DD443CD517D
:1023CE00DB4C688179818A819B81C35ED4430E94F4
:1023DE00D21A9B01AC01C701B6010E949A1A6B0179
:1023EE007C01C954DB4C288139814A815B81C75BF2
:1023FE00D443CA01B9010E949A1A9B01AC01C701CC
:10240E00B6010E94D21A9058C758DA4C28813981E9
:10241E004A815B81C957D5430E94CE1AC95FDA4CF7
:10242E00A881B981C750D5436D937D938D939D93AC
:10243E00C95FDA4CB983A883C750D543C155DB4C6D
:10244E00288139814A815B81CF5AD443CA01B901AF
:10245E000E949A1A9B01AC01C358DA4C68817981AB
:10246E008A819B81CD57D5430E94991AC955DB4C61
:10247E002881C75AD443C855DB4C3881C85AD44337
:10248E00C755DB4C4881C95AD443C655DB4C5881DD
:10249E00CA5AD4430E94CE1AC955DB4C2881C75A5A
:1024AE00D443C855DB4C3881C85AD443C755DB4C8E
:1024BE004881C95AD443C655DB4C5881CA5AD443B5
:1024CE000E94D21A6B017C01CF57DA4C28813981D8
:1024DE004A815B81C158D543CD54DB4C68817981EB
:1024EE008A819B81C35BD4430E94D21ACB57DA4CAC
:1024FE00288139814A815B81C558D5430E94CE1A05
:10250E009B01AC01C701B6010E94991A6B017C01B7
:10251E00C757DA4C288139814A815B81C958D54326
:10252E00C301B2010E94D21AC357DA4C28813981F5
:10253E004A815B81CD58D5430E94CE1A9B01AC01D6
:10254E00C701B6010E949A1ACB5FDA4CE881F98175
:10255E00C550D5436193719381939193CB5FDA4CC0
:10256E00F983E883C550D543CF56DA4C288139819B
:10257E004A815B81C159D543C153DB4C6881798156
:10258E008A819B81CF5CD4430E94CE1A6B017C0161
:10259E00C75EDA4C288139814A815B81C951D543A6
:1025AE00C301B2010E94D21ACB56DA4C288139816E
:1025BE004A815B81C559D5430E94CE1A9B01AC015D
:1025CE00C701B6010E94991ACD5FDA4CA881B98174
:1025DE00C350D5436D937D938D939D93CD5FDA4C10
:1025EE00B983A883C350D543A3019201C301B2019D
:1025FE000E949A1AC756DA4C288139814A815B812A
:10260E00C959D5430E94CE1ACF5FDA4CE881F981C1
:10261E00C150D5436193719381939193CF5FDA4CFF
:10262E00F983E883C150D543C952DB4C28813981E7
:10263E004A815B81C75DD443C75DDA4C688179817D
:10264E008A819B81C952D5430E94991AC356DA4C8E
:10265E00288139814A815B81CD59D5430E94991ACF
:10266E006B017C01C556DB4C288139814A815B8127
:10267E00CB59D443CD53DB4C688179818A819B81C0
:10268E00C35CD4430E94D21A9B01AC01C701B601B0
:10269E000E949A1A9B01AC010E949A1AA5019401FC
:1026AE000E94D21A9058CF55DA4C288139814A812E
:1026BE005B81C15AD5430E94CE1AC150DB4CA88112
:1026CE00B981CF5FD4436D937D938D939D93C1500C
:1026DE00DB4CB983A883CF5FD4435101BCE9AB1A5D
:1026EE00BEEEBB0ACB55DA4C288139814A815B811B
:1026FE00C55AD543C554DB4C688179818A819B814B
:10270E00CB5BD4430E94D21AC755DA4C288139814B
:10271E004A815B81C95AD5430E94CE1A6B017C0156
:10272E00CD56DB4C288139814A815B81C359D44314
:10273E00CA01B9010E949A1AA30192010E94D21AEB
:10274E00C355DA4C288139814A815B81CD5AD543F4
:10275E000E94CE1A9B01AC01C701B6010E94991AC4
:10276E00F50160837183828393835101F0E2AF1A86
:10277E00FCEEBF0ACB54DA4C288139814A815B8149
:10278E00C55BD543CD56DB4C688179818A819B81AF
:10279E00C359D4430E94D21A6B017C01C754DA4C40
:1027AE00288139814A815B81C95BD543C157DB4C96
:1027BE00688179818A819B81CF58D4430E94D21A35
:1027CE009B01AC01C701B6010E94991A9B01AC0195
:1027DE000E949A1AA30192010E94D21ACB5EDA4C81
:1027EE00288139814A815B81C551D5430E94CE1A19
:1027FE006B017C01C75EDA4C288139814A815B818D
:10280E00C951D543C554DB4C688179818A819B813E
:10281E00CB5BD4430E94D21ACF54DA4C2881398133
:10282E004A815B81C15BD5430E94CE1A9B01AC01EC
:10283E00C701B6010E949A1AD5016D937D938D93AF
:10284E009C9313970F5F1F4FB4E02B0E311C0F3963
:10285E00110509F02FC88E010754134DC157DB4CDB
:10286E001882CF58D443CD56DB4C1882C359D4436B
:10287E00C956DB4C1882C759D443CD55DB4C188250
:10288E00C35AD443F12CE12CD12CC12CF801619107
:10289E007191819191918F019B01AC010E94D21A8D
:1028AE0020E030E040E05FE30E94D21A9B01AC01D1
:1028BE006F2D7E2D8D2D9C2D0E949A1AF62EE72EB1
:1028CE00D82EC92EC757DB4C28813981C958D4431D
:1028DE0002171307D9F6C157DB4C6883CF58D44380
:1028EE00CD56DB4C7883C359D443C956DB4C888311
:1028FE00C759D443CD55DB4C9883C35AD443C553E3
:10290E00DA4C88819981CB5CD54302970CF4CAC10D
:10291E00C153DA4C2881CF5CD543C053DA4C388191
:10292E00C05DD543CF52DA4C4881C15DD543CE52FE
:10293E00DA4C5881C25DD5436F2D7E2D8D2D9C2D89
:10294E000E94991A9F7720E030E048EC52E40E94F2
:10295E00D21A2F2D3E2D4D2D5C2D0E94CE1A2DEC10
:10296E003CEC4CE45DE30E94C51A881F8827881F43
:10297E0091E08927A82FB0E0C155DB4CB983A8831D
:10298E00CF5AD443C353DA4C28803980CD5CD5431B
:10299E009E01235A394E49018E01035A194E510197
:1029AE00680134E8C31A3DEFD30A7401412C512C4F
:1029BE003201D7016D917D918D919D917D01F8012F
:1029CE0021913191419151918F010E94D21A9B0117
:1029DE00AC01C301B2010E949A1A2B013C01C01630
:1029EE00D10639F7D5016D937D938D939D935D013E
:1029FE008601CB57DB4CE881F981C558D443CE16FE
:102A0E00DF0671F6F4E88F1AFDEF9F0A24E2220E1C
:102A1E00311CCB57DB4C88819981C558D44388151E
:102A2E00990509F0B9CFBE016F547E4CC353DA4CF1
:102A3E0088819981CD5CD5430E94FB16DE01AF548F
:102A4E00BE4C1D01FE013196CD54DB4CF983E8835B
:102A5E00C35BD4439E012B503D4CC353DA4C398398
:102A6E002883CD5CD543C555DB4CF983E883CB5A1F
:102A7E00D443DE01A35AB94E5D01C555DB4C8880A7
:102A8E009980CB5AD443650194EAC91A99EED90AB2
:102A9E0085017101412C512C3201D7016D917D912F
:102AAE008D919D917D01F80120813181428153816B
:102ABE000E94D21A9B01AC01C301B2010E949A1A64
:102ACE002B013C0104581D4FC016D10631F7D4011D
:102ADE006D937D938D939D934D01B4E0AB0EB11C20
:102AEE00C957DB4CE881F981C758D443EA15FB0579
:102AFE0051F6F4E22F0E311CC555DB4C288139817D
:102B0E00CB5AD44324583D4FC555DB4C39832883CB
:102B1E00CB5AD443C357DB4C88819981CD58D443CB
:102B2E008215930509F0A5CFFE01E75CFB4C6F0102
:102B3E00CD54DB4CA880B980C35BD4434F018E01CA
:102B4E000754134D7501412C512C3201D7016D9153
:102B5E007D918D919D917D01F80121913191419150
:102B6E0051918F010E94D21A9B01AC01C301B20197
:102B7E000E949A1A2B013C01C757DB4C28813981E0
:102B8E00C958D4430217130709F7D6016D937D93E5
:102B9E008D939D936D01B4E8AB1ABDEFBB0AC5577B
:102BAE00DB4CE881F981CB58D443EA15FB0539F6A5
:102BBE0034018E01035A1B4CC955DB4CB881C75AE0
:102BCE00D443C855DB4CA881C85AD443C755DB4CF7
:102BDE00F881C95AD443C655DB4CE881CA5AD4434E
:102BEE007F0105C0BC91F801A181F280E380F30161
:102BFE0061917191819191913F012B2F3A2F4F2D20
:102C0E005E2D0E949A1AD8016D937D938D939D939C
:102C1E008D01CF57DB4CE881F981C158D443EA17B7
:102C2E00FB0701F7C553DA4C28813981CB5CD543BC
:102C3E002F5F3F4FC553DA4C39832883CB5CD54386
:102C4E00C155DB4C88819981CF5AD443019799F5B0
:102C5E00C157DB4C9881CF58D443C153DA4C98837B
:102C6E00CF5CD543CD56DB4CA881C359D443C0535A
:102C7E00DA4CA883C05DD543C956DB4CB881C75921
:102C8E00D443CF52DA4CB883C15DD543CD55DB4C1E
:102C9E00E881C35AD443CE52DA4CE883C25DD543A1
:102CAE000C942001E1E0F0E0C155DB4CF983E883A0
:102CBE00CF5AD44367CEC955DB4C8881C75AD4430B
:102CCE00C855DB4C9881C85AD443C755DB4CA881F4
:102CDE00C95AD443C655DB4CB881CA5AD443C354DF
:102CEE00DA4CE881F981CD5BD54380839183A28351
:102CFE00B383C553DB4C88819981AA81BB81CB5CA0
:102D0E00D44384839583A683B783C953DB4C8881D0
:102D1E009981AA81BB81C75CD44380879187A287A2
:102D2E00B387C951DB4C88819981AA81BB81C75E6B
:102D3E00D44384879587A687B787C551DB4C888196
:102D4E009981AA81BB81CB5ED443808B918BA28B60
:102D5E00B38BC151DB4C88819981AA81BB81CF5E37
:102D6E00D443848B958BA68BB78BC154DA4C888158
:102D7E009981AA81BB81CF5BD543808F918FA28F22
:102D8E00B38FCD53DA4C88819981AA81BB81C35C04
:102D9E00D543848F958FA68FB78FC953DA4C888110
:102DAE009981AA81BB81C75CD54380A391A3A2A3BD
:102DBE00B3A3C901C852DA4C0FB6F894DEBF0FBEEA
:102DCE00CDBFDF91CF911F910F91FF90EF90DF90CC
:102DDE00CF90BF90AF909F908F907F906F905F90AD
:082DEE004F903F902F900895D3
:102DF6002F923F924F925F926F927F928F929F9205
:102E0600AF92BF92CF92DF92EF92FF920F931F93F2
:102E1600CF93DF93CDB7DEB764970FB6F894DEBFD6
:102E26000FBECDBF988B8F87698B7A8BAB0120E065
:102E360030E0C12CD12C80E8E82E8FE3F82EFA0181
:102E4600DA0180E090E02817390709F4FFC0108204
:102E56001182128213820196149634968930910556
:102E660091F72F5F3F4F4C5D5F4F2930310539F7A2
:102E76004F84588884E2480E511C99899D83EA89BB
:102E8600EE838F8598899A8789879C878B879E870B
:102E96008D8718861F82ED85FE85C080D180E280F1
:102EA600F3800D811E8189859A859A838983A7017E
:102EB6009601E981FA8160817181828193810E9404
:102EC600CE1AE981FA816193719381939193FA8382
:102ED600E983A7019601F80160817181828193815E
:102EE6000E94CE1AF80161937193819391938F0199
:102EF60089819A8184159505D1F6EB85FC85FC833D
:102F0600EB83F989F9838A898A832F843888612C2F
:102F1600712CEF81F885E615F70509F448C0EB81B9
:102F2600FC8180809180A280B380E980FA80CD8088
:102F3600DE80810189859A859C8B8B8BEB89FC8948
:102F46002191319141915191FC8BEB8BC501B401DB
:102F56000E94D21A9B01AC01F801608171818281C5
:102F660093810E94991AF8016193719381939193C9
:102F76008F01F60121913191419151916F01C50166
:102F8600B4010E94D21A9B01AC01F70160817181E4
:102F9600828193810E94991AF701619371938193BB
:102FA60091937F018B899C898415950539F6FFEFEE
:102FB6006F1A7F0A84E2280E311CE981FA81B496E1
:102FC600FA83E9838B819C8184969C838B8399E029
:102FD6006916710409F09DCFEF81F8853196F8875F
:102FE600EF838D859E8588969E878D87EB85FC85EC
:102FF6003496FC87EB8789859A8584969A87898794
:10300600ED81FE81B496FE83ED83F4E24F0E511CF2
:103016008F819885099709F03ECF64960FB6F8948C
:10302600DEBF0FBECDBFDF91CF911F910F91FF90F5
:10303600EF90DF90CF90BF90AF909F908F907F9052
:103046006F905F904F903F902F900895CD92DD92B4
:08305600ED92FC921397FFCEEE
:10305E00CF93DF93CDB7DEB7A8970FB6F894DEBF48
:10306E000FBECDBF0E948A1ACE0189963C0158EF41
:10307E00852E55E0952E6CE7A62E63E0B62E409970
:10308E00FECF88B1827088B948EFE42E45E0F42E69
:10309E00870134E0D32E0E94BB1AF80181938F0171
:1030AE00DA94D110F8CFF4E0EF0EF11C84E7E816B5
:1030BE0088E0F80669F70CE713E0780124E0D22ED9
:1030CE000E94BB1AF70181937F01DA94D110F8CFD9
:1030DE000C5F1F4F8016910681F790E0C92E91E08C
:1030EE00D92E760110E00E94BB1AF70181937F0161
:1030FE001F5F1430C1F7F4E0CF0ED11CAC14BD0429
:10310E0081F788B18D6F88B924E738E040E051E04F
:10311E006CE773E088EF95E00E9467008093BC082F
:10312E001DA21EA21FA218A6E4E7F8E0CE0101968A
:10313E007C01DC0141915191619171914D935D93AF
:10314E006D937D9398E0EC39F907A1F788B1827001
:10315E0088B9870184E0D82EF80181918F010E94F1
:10316E00C01ADA94D110F8CFF4E0EF0EF11CE61489
:10317E00F70479F78E010B5D1F4FF80181918F01D6
:10318E000E94C01A60167106C1F78091BC080E9499
:0A319E00C01A88B18D6F88B972CF96
:1031A80010C00E94A71A58F00E94A01A40F029F4F3
:1031B8005F3F29F00C94B51A51110C94AF1A0C9476
:1031C800D61A0E94381A68F39923B1F3552391F35C
:1031D800951B550BBB27AA2762177307840738F07E
:1031E8009F5F5F4F220F331F441FAA1FA9F335D0DB
:1031F8000E2E3AF0E0E832D091505040E695001C8F
:10320800CAF72BD0FE2F29D0660F771F881FBB1F48
:10321800261737074807AB07B0E809F0BB0B802D26
:10322800BF01FF2793585F4F3AF09E3F510578F052
:103238000C94B51A0C94AF1A5F3FE4F3983ED4F39C
:10324800869577956795B795F7959F5FC9F7880F26
:10325800911D9695879597F90895E1E0660F771F78
:10326800881FBB1F621773078407BA0720F0621B09
:0E327800730B840BBA0BEE1F88F7E0950895D8
:103286000FC00E94A01A38F00E94A71A20F09523BA
:1032960011F00C94B51A0C94D61A11240C94AF1A8A
:1032A6000E94381A70F3959FC1F3950F50E0551F91
:1032B600629FF001729FBB27F00DB11D639FAA2785
:1032C600F00DB11DAA1F649F6627B00DA11D661FD4
:1032D600829F2227B00DA11D621F739FB00DA11DF5
:1032E600621F839FA00D611D221F749F3327A00DAF
:1032F600611D231F849F600D211D822F762F6A2F4B
:1033060011249F5750409AF0F1F088234AF0EE0FAF
:10331600FF1FBB1F661F771F881F91505040A9F7DC
:103326009E3F510580F00C94B51A0C94AF1A5F3F7E
:10333600E4F3983ED4F3869577956795B795F79518
:10334600E7959F5FC1F7FE2B880F911D9695879590
:0433560097F9089546
:10335A0011C00E94A01A38F00E94A71A20F039F46E
:10336A009F3F19F426F40C94D61A0EF4E095E7FB65
:10337A000C94B51AE92F0E94381A58F3BA17620743
:10338A0073078407950720F079F4A6F50C94AE1A12
:10339A000EF4E0950B2EBA2FA02D0B01B901900166
:1033AA000C01CA01A0011124FF27591B99F0593FAA
:1033BA0050F4503E68F11A16F040A22F232F342FF2
:1033CA004427585FF3CF469537952795A795F04040
:1033DA005395C9F77EF41F16BA0B620B730B840B55
:1033EA00BAF09150A1F0FF0FBB1F661F771F881F0D
:1033FA00C2F70EC0BA0F621F731F841F48F4879565
:10340A0077956795B795F7959E3F08F0B0CF939556
:0E341A00880F08F09927EE0F97958795089573
:10342800990F0008550FAA0BE0E8FEEF16161706CD
:10343800E807F907C0F012161306E407F50798F035
:10344800621B730B840B950B39F40A2661F0232B4E
:10345800242B252B21F408950A2609F4A140A695CA
:083468008FEF811D811D089505
:1034700057FD9058440F551F59F05F3F71F0479525
:10348000880F97FB991F61F09F3F79F0879508950A
:10349000121613061406551FF2CF4695F1DF08C029
:1034A000161617061806991FF1CF86957105610546
:0434B00008940895DF
:1034B400092E0394000C11F4882352F0BB0F40F43E
:1034C400BF2B11F460FF04C06F5F7F4F8F4F9F4F7E
:0234D400089559
:1034D60081E584B982E087B91AB815B818B81BB85F
:0834E60013B816B819B80895D7
:1034EE00EC010E94DE1A0E94DD1ACE010E94DF1A44
:0634FE00CE010E94DB1A62
:103504001CBC1DBC14B880E184B980E48CBD089552
:103514000E94921A0E946B1A0E94CA1A0C94821A70
:0E352400109264001092610013BE15BE08954F
:0E3532005058BB27AA270E94AD190C945A1AB4
:0E35400000240A9416161706180609060895A8
:0E354E0000240A9412161306140605060895AA
:0E355C00E894BB2766277727CB0197F90895DF
:0C356A0097F99F6780E870E060E008952A
:0A3576000CB407FEFDCF8EB50895DA
:0A3580008EBD0CB407FEFDCF0895C8
:0A358A000E94141A08F481E008956D
:0835940015BE1FBE80E0089582
:08359C000E94D4180C945A1A85
:0835A4000E9443190C945A1A0D
:0635AC009FEF80EC089582
:0435B2000C94000075
:0435B6000E9465000A
:0235BA00089572
:0235BC00089570
:0235BE0008956E
:1035C0000000803F0000803F0000803F00000000BE
:1035D00000000000000000000000000000000000EB
:0435E00000000000E7
:02000004008278
:03000000A2DF0775
:00000001FF
