:100000000C943D000C94A31A0C94A31A0C94A31AFC
:100010000C94A31A0C94A31A0C94A31A0C94A31A6C
:100020000C94A31A0C94A31A0C94A31A0C94A31A5C
:100030000C94A31A0C94A31A0C94A31A0C94A31A4C
:100040000C94A31A0C94A31A0C94A31A0C94A31A3C
:100050000C94A31A0C94A31A0C94A31A0C94A31A2C
:100060000C94A31A0C94A31A01000898800898080D
:10007000BC00355408BC08BD800011241FBECFEF62
:10008000D8E0DEBFCDBFE8E6F0E040E017C0B591B4
:10009000A59135912591059107FD0CC0959185910C
:1000A000EF01F92FE82F05900D92A217B307D9F7AA
:1000B000FE0104C01D92A217B307E1F7E937F40768
:0E00C00031F70E94D4170C94401AF894FFCF29
:1000CE002F923F924F925F926F927F928F929F925A
:1000DE00AF92BF92CF92DF92EF92FF920F931F9348
:1000EE00CF93DF93CDB7DEB7CC5DD5430FB6F89483
:1000FE00DEBF0FBECDBFC952DA4C8883C75DD54374
:10010E00C852DA4C9883C85DD543C752DA4C68831F
:10011E00C95DD543C652DA4C7883CA5DD543C55204
:10012E00DA4C4883CB5DD543C452DA4C5883CC5D50
:10013E00D543C154DA4C39832883CF5BD54384E24F
:10014E00E8E9F8E0DE01119601900D928A95E1F74B
:10015E009E012F553D4FFE01B59680E090E0A0E840
:10016E00BFE381939193A193B193E217F307C9F77C
:10017E00C153DA4C1882CF5CD543C053DA4C188287
:10018E00C05DD543CF52DA4C1882C15DD543CE52F5
:10019E00DA4C1882C25DD543C353DA4C19821882E9
:1001AE00CD5CD5439E01235E3A4FCF57DB4C39834E
:1001BE002883C158D443CE018756984FCD57DB4C78
:1001CE0099838883C358D443DE01A758B44ECB57C6
:1001DE00DB4CB983A883C558D443CD52DA4C188270
:1001EE00C35DD543CC52DA4C1882C45DD543CB5295
:1001FE00DA4C1882C55DD543CA52DA4C1882C65DF8
:10020E00D543B0E0CB56DB4CB883C559D443E0E0C0
:10021E00CA56DB4CE883C659D443F0E0C956DB4CD2
:10022E00F883C759D44320E0C856DB4C2883C859FD
:10023E00D443885B9A4EC957DB4C99838883C75841
:10024E00D443DE01AB5DB14EC757DB4CB983A883F7
:10025E00C958D443FE01B596C557DB4CF983E883E4
:10026E00CB58D44328C0CF56DB4CF881C159D44368
:10027E00C153DA4CF883CF5CD543C756DB4C28818B
:10028E00C959D443C053DA4C2883C05DD543CF55EA
:10029E00DB4C3881C15AD443CF52DA4C3883C15D1E
:1002AE00D543CB55DB4C8881C55AD443CE52DA4C5C
:1002BE008883C25DD54389819A81AB81BC81C75544
:1002CE00DB4C88839983AA83BB83C95AD4438D811F
:1002DE009E81AF81B885CF52DB4C88839983AA83E8
:1002EE00BB83C15DD44389859A85AB85BC85C353D9
:1002FE00DB4C88839983AA83BB83CD5CD4438D85E5
:10030E009E85AF85B889C751DB4C88839983AA83B4
:10031E00BB83C95ED44389899A89AB89BC89C35191
:10032E00DB4C88839983AA83BB83CD5ED4438D89AE
:10033E009E89AF89B88DCF50DB4C88839983AA8371
:10034E00BB83C15FD443898D9A8DAB8DBC8DCF534A
:10035E00DA4C88839983AA83BB83C15CD5438D8D88
:10036E009E8DAF8DB8A1CB53DA4C88839983AA8327
:10037E00BB83C55CD54389A19AA1ABA1BCA1C753D0
:10038E00DA4C88839983AA83BB83C95CD543CB534C
:10039E00DA4C288139814A815B81C55CD543CA011B
:1003AE00B9010E949C1A6B017C019B01AC01CB53DD
:1003BE00DA4C688179818A819B81C55CD5430E9424
:1003CE009C1A20E030E040EC50E40E94981A9B0109
:1003DE00AC01CB53DA4C688179818A819B81C55CF3
:1003EE00D5430E94631ACB51DB4C688379838A8391
:1003FE009B83C55ED443CF53DA4C288139814A8121
:10040E005B81C15CD543CA01B9010E949C1A4B01A4
:10041E005C019B01AC01CF53DA4C688179818A81F2
:10042E009B81C15CD5430E949C1A20E030E040ECD9
:10043E0050E40E94981A9B01AC01CF53DA4C6881AC
:10044E0079818A819B81C15CD5430E94631ACB530B
:10045E00DB4C688379838A839B83C55CD443C75303
:10046E00DA4C288139814A815B81C95CD543CA0146
:10047E00B9010E949C1A2B013C019B01AC01C75390
:10048E00DA4C688179818A819B81C95CD5430E944F
:10049E009C1A20E030E040EC50E40E94981A9B0138
:1004AE00AC01C753DA4C688179818A819B81C95C22
:1004BE00D5430E94631AC756DB4C688379838A83BF
:1004CE009B83C959D44320E030E040E05FE3C7018D
:1004DE00B6010E949C1A9B01AC0160E070E080E8BE
:1004EE009FE30E94631ACB55DB4C688379838A8322
:1004FE009B83C55AD44320E030E040E05FE3C50162
:10050E00B4010E949C1A9B01AC0160E070E080E88F
:10051E009FE30E94631AC354DB4C688379838A83FA
:10052E009B83CD5BD44320E030E040E05FE3C3012A
:10053E00B2010E949C1A9B01AC0160E070E080E861
:10054E009FE30E94631ACF55DB4C688379838A83BD
:10055E009B83C15AD443C755DB4C288139814A81CC
:10056E005B81C95AD443CA01B9010E949C1ACD5D60
:10057E00DA4C688379838A839B83C352D543CB53EA
:10058E00DB4C288139814A815B81C55CD443CF52D3
:10059E00DB4C688179818A819B81C15DD4430E9445
:1005AE009C1ACD5FDA4C688379838A839B83C35010
:1005BE00D543CF52DB4C288139814A815B81C15DA5
:1005CE00D443C755DB4C688179818A819B81C95A96
:1005DE00D4430E949C1A4B015C019B01AC01C35495
:1005EE00DB4C688179818A819B81CD5BD4430E94EB
:1005FE009C1AC550DB4C688379838A839B83CB5FBF
:10060E00D4439B01AC010E949C1AC15DDA4C6883F5
:10061E0079838A839B83CF52D543C353DB4C288186
:10062E0039814A815B81CD5CD443C755DB4C6881EF
:10063E0079818A819B81C95AD4430E949C1AC355E1
:10064E00DB4C688379838A839B83CD5AD4439B0189
:10065E00AC01C756DB4C688179818A819B81C9596F
:10066E00D4430E949C1AC95FDA4C688379838A83CB
:10067E009B83C750D543C353DB4C288139814A81B4
:10068E005B81CD5CD443CF52DB4C688179818A810A
:10069E009B81C15DD4430E949C1AC357DB4C688377
:1006AE0079838A839B83CD58D443C756DB4C2881EC
:1006BE0039814A815B81C959D443CB53DB4C688164
:1006CE0079818A819B81C55CD4430E949C1A6B01FF
:1006DE007C01C354DB4C288139814A815B81CD5B1F
:1006EE00D443CB51DB4C688179818A819B81C55E75
:1006FE00D4430E949C1ACF55DB4C288139814A8104
:10070E005B81C15AD4430E949C1A9B01AC01C70164
:10071E00B6010E94631AC357DB4C288139814A8186
:10072E005B81CD58D4430E949C1ACD5CDA4C688311
:10073E0079838A839B83C353D543A5019401C35305
:10074E00DB4C688179818A819B81CD5CD4430E9488
:10075E009C1ACF54DB4C688379838A839B83C15B5D
:10076E00D4439B01AC01C354DB4C688179818A81EF
:10077E009B81CD5BD4430E949C1ACB55DB4C2881C8
:10078E0039814A815B81C55AD4430E949C1ACF5548
:10079E00DB4C288139814A815B81C15AD4430E9446
:1007AE009C1A9B01AC010E949C1AC95CDA4C6883AE
:1007BE0079838A839B83C753D543CD5DDA4C2881D9
:1007CE0039814A815B81C352D543CF52DB4C68815C
:1007DE0079818A819B81C15DD4430E949C1ACF5638
:1007EE00DB4C688379838A839B83C159D4439B01F5
:1007FE00AC01CF52DB4C688179818A819B81C15DCE
:10080E00D4430E949C1ACB54DB4C688379838A8331
:10081E009B83C55BD4439B01AC01C354DB4C688105
:10082E0079818A819B81CD5BD4430E949C1AC354EB
:10083E00DB4C288139814A815B81CD5BD4430E9498
:10084E009C1AC55CDA4C688379838A839B83CB536D
:10085E00D543CD5DDA4C288139814A815B81C35203
:10086E00D543C755DB4C688179818A819B81C95AF2
:10087E00D4430E949C1AC95DDA4C688379838A83BB
:10088E009B83C752D5439B01AC01CF52DB4C688191
:10089E0079818A819B81C15DD4430E949C1ACF527B
:1008AE00DB4C288139814A815B81C15DD4430E9432
:1008BE009C1AC754DB4C688379838A839B83C95BFC
:1008CE00D4439B01AC01C354DB4C688179818A818E
:1008DE009B81CD5BD4430E949C1AC354DB4C288170
:1008EE0039814A815B81CD5BD4430E949C1AC15CE5
:1008FE00DA4C688379838A839B83CF53D543CF5554
:10090E00DB4C288139814A815B81C15AD443C3545F
:10091E00DB4C688179818A819B81CD5BD4430E94B7
:10092E009C1ACB51DB4C288139814A815B81C55E93
:10093E00D4430E949C1A9B01AC01C701B6010E94D0
:10094E00631A2B013C019B01AC01C357DB4C688140
:10095E0079818A819B81CD58D4430E949C1ACD5BAC
:10096E00DA4C688379838A839B83C354D543C754F7
:10097E00DB4C288139814A815B81C95BD443C353E7
:10098E00DB4C688179818A819B81CD5CD4430E9446
:10099E009C1AC353DB4C288139814A815B81CD5C23
:1009AE00D4430E949C1ACF55DB4C288139814A8151
:1009BE005B81C15AD4430E949C1ACF55DB4C2881CF
:1009CE0039814A815B81C15AD4430E949C1ACB550E
:1009DE00DB4C288139814A815B81C55AD4430E9400
:1009EE009C1ACB55DB4C288139814A815B81C55AD3
:1009FE00D4430E949C1AC354DB4C288139814A810E
:100A0E005B81CD5BD4430E949C1AC354DB4C28817E
:100A1E0039814A815B81CD5BD4430E949C1AC95BAC
:100A2E00DA4C688379838A839B83C754D543C35436
:100A3E00DB4C288139814A815B81CD5BD443CF5217
:100A4E00DB4C688179818A819B81C15DD4430E9490
:100A5E009C1AC55BDA4C688379838A839B83CB545B
:100A6E00D543C756DB4C288139814A815B81C959F0
:100A7E00D443C353DB4C688179818A819B81CD5CE1
:100A8E00D4430E949C1AC15BDA4C688379838A83B3
:100A9E009B83CF54D543CB54DB4C288139814A817B
:100AAE005B81C55BD443C353DB4C688179818A81FA
:100ABE009B81CD5CD4430E949C1ACB54DB4C688343
:100ACE0079838A839B83C55BD4439B01AC01C3535B
:100ADE00DB4C688179818A819B81CD5CD4430E94F5
:100AEE009C1AC754DB4C688379838A839B83C95BCA
:100AFE00D4439B01AC01CF55DB4C688179818A814F
:100B0E009B81C15AD4430E949C1ACF55DB4C28813D
:100B1E0039814A815B81C15AD4430E949C1AC356C3
:100B2E00DB4C688379838A839B83CD59D4439B01A5
:100B3E00AC01CB55DB4C688179818A819B81C55A8A
:100B4E00D4430E949C1ACB55DB4C288139814A81B3
:100B5E005B81C55AD4430E949C1AC354DB4C288136
:100B6E0039814A815B81CD5BD4430E949C1AC35468
:100B7E00DB4C288139814A815B81CD5BD4430E9455
:100B8E009C1AC55FDA4C688379838A839B83CB502A
:100B9E00D543C351DB4C288139814A815B81CD5EBF
:100BAE00D443C755DB4C688179818A819B81C95AB0
:100BBE00D4430E949C1ACB52DB4C688379838A8380
:100BCE009B83C55DD4439B01AC01C353DB4C688151
:100BDE0079818A819B81CD5CD4430E949C1A6B01E2
:100BEE007C019B01AC01C756DB4C688179818A81FF
:100BFE009B81C959D4430E949C1ACF53DB4C688306
:100C0E0079838A839B83C15CD4439B01AC01C75615
:100C1E00DB4C688179818A819B81C959D4430E94BA
:100C2E009C1ACD5ADA4C688379838A839B83C35589
:100C3E00D543A7019601CF55DB4C688179818A8116
:100C4E009B81C15AD4430E949C1ACF55DB4C2881FC
:100C5E0039814A815B81C15AD4430E949C1ACB557B
:100C6E00DB4C288139814A815B81C55AD4430E946D
:100C7E009C1ACB55DB4C288139814A815B81C55A40
:100C8E00D4430E949C1AC95ADA4C688379838A83AA
:100C9E009B83C755D543CF50DB4C288139814A8180
:100CAE005B81C15FD443C755DB4C688179818A81F2
:100CBE009B81C95AD4430E949C1ACF52DB4C288187
:100CCE0039814A815B81C15DD4430E949C1AC35411
:100CDE00DB4C288139814A815B81CD5BD4430E94F4
:100CEE009C1A6B017C019B01AC01C756DB4C6881E1
:100CFE0079818A819B81C959D4430E949C1AC55A15
:100D0E00DA4C688379838A839B83CB55D543C7514D
:100D1E00DB4C288139814A815B81C95ED443CF5235
:100D2E00DB4C688179818A819B81C15DD4430E94AD
:100D3E009C1AC55DDA4C688379838A839B83CB5278
:100D4E00D5439B01AC01C353DB4C688179818A8109
:100D5E009B81CD5CD4430E949C1AC753DB4C6883A5
:100D6E0079838A839B83C95CD4439B01AC01C756AC
:100D7E00DB4C688179818A819B81C959D4430E9459
:100D8E009C1AC752DB4C688379838A839B83C95D27
:100D9E00D4439B01AC01C756DB4C688179818A81B3
:100DAE009B81C959D4430E949C1ACB53DB4C28819A
:100DBE0039814A815B81C55CD4430E949C1AC15A19
:100DCE00DA4C688379838A839B83CF55D543C75387
:100DDE00DB4C288139814A815B81C95CD443CF5574
:100DEE00DB4C688179818A819B81C15AD4430E94F0
:100DFE009C1AC753DB4C688379838A839B83C95CB7
:100E0E00D4439B01AC01CF55DB4C688179818A813B
:100E1E009B81C15AD4430E949C1ACB55DB4C28812E
:100E2E0039814A815B81C55AD4430E949C1ACB55A5
:100E3E00DB4C288139814A815B81C55AD4430E949B
:100E4E009C1ACB53DB4C288139814A815B81C55C6E
:100E5E00D4430E949C1ACD59DA4C688379838A83D5
:100E6E009B83C356D543C753DB4C288139814A81B6
:100E7E005B81C95CD443C354DB4C688179818A8120
:100E8E009B81CD5BD4430E949C1AC753DB4C688375
:100E9E0079838A839B83C95CD4439B01AC01C7567B
:100EAE00DB4C688179818A819B81C959D4430E9428
:100EBE009C1ACB51DB4C288139814A815B81C55EFE
:100ECE00D4430E949C1AC959DA4C688379838A8369
:100EDE009B83C756D543CF52DB4C288139814A813B
:100EEE005B81C15DD443CA01B9010E949C1ACF52E5
:100EFE00DB4C288139814A815B81C15DD4430E94DC
:100F0E009C1AC755DB4C288139814A815B81C95AAD
:100F1E00D4430E949C1AC353DB4C288139814A81E9
:100F2E005B81CD5CD4430E949C1ACF55DB4C28814B
:100F3E0039814A815B81C15AD4430E949C1ACF5594
:100F4E00DB4C288139814A815B81C15AD4430E948E
:100F5E009C1ACB55DB4C288139814A815B81C55A5D
:100F6E00D4430E949C1ACB55DB4C288139814A818F
:100F7E005B81C55AD4430E949C1AC354DB4C288112
:100F8E0039814A815B81CD5BD4430E949C1AC35444
:100F9E00DB4C288139814A815B81CD5BD4430E9431
:100FAE009C1AC559DA4C688379838A839B83CB5606
:100FBE00D543CF53DB4C288139814A815B81C15C9B
:100FCE00D443C701B6010E94631AC159DA4C688333
:100FDE0079838A839B83CF56D543C752DB4C2881B6
:100FEE0039814A815B81C95DD443CB53DB4C688127
:100FFE0079818A819B81C55CD4430E949C1ACD580D
:10100E00DA4C688379838A839B83C357D543C7534E
:10101E00DB4C288139814A815B81C95CD443CB5139
:10102E00DB4C688179818A819B81C55ED4430E94A5
:10103E009C1AC958DA4C688379838A839B83C75775
:10104E00D543C353DB4C288139814A815B81CD5C0A
:10105E00D443CA01B9010E949C1AC353DB4C2881A8
:10106E0039814A815B81CD5CD4430E949C1AA501D3
:10107E0094010E949C1ACF55DB4C288139814A81FC
:10108E005B81C15AD4430E949C1ACF55DB4C2881F8
:10109E0039814A815B81C15AD4430E949C1ACB5537
:1010AE00DB4C288139814A815B81C55AD4430E9429
:1010BE009C1ACB55DB4C288139814A815B81C55AFC
:1010CE00D4430E949C1AC354DB4C288139814A8137
:1010DE005B81CD5BD4430E949C1AC558DA4C688361
:1010EE0079838A839B83CB57D543C751DB4C2881A9
:1010FE0039814A815B81C95ED443CA01B9010E941C
:10110E00641AC158DA4C688379838A839B83CF57DC
:10111E00D543CB53DB4C288139814A815B81C55C39
:10112E00D443CA01B9010E94641ACD57DA4C6883C0
:10113E0079838A839B83C358D543CF56DB4C288152
:10114E0039814A815B81C159D443C354DB4C6881D8
:10115E0079818A819B81CD5BD4430E949C1AC354B2
:10116E00DB4C288139814A815B81CD5BD4430E945F
:10117E009C1AC957DA4C688379838A839B83C75834
:10118E00D543A3019201C301B2010E94641AC5574F
:10119E00DA4C688379838A839B83CB58D543CF56A9
:1011AE00DB4C288139814A815B81C159D443C353B9
:1011BE00DB4C688179818A819B81CD5CD4430E940E
:1011CE009C1ACF55DB4C288139814A815B81C15AEB
:1011DE00D4430E949C1A2B013C019B01AC01CF55BC
:1011EE00DB4C688179818A819B81C15AD4430E94EC
:1011FE009C1A9B01AC010E94641ACB55DB4C2881D2
:10120E0039814A815B81C55AD4430E949C1ACB55C1
:10121E00DB4C288139814A815B81C55AD4430E94B7
:10122E009C1AC354DB4C288139814A815B81CD5B8A
:10123E00D4430E949C1AC354DB4C288139814A81C5
:10124E005B81CD5BD4430E949C1AC157DA4C6883F4
:10125E0079838A839B83CF58D543A5019401CF52BE
:10126E00DB4C688179818A819B81C15DD4430E9468
:10127E009C1A6B017C019B01AC01C354DB4C688151
:10128E0079818A819B81CD5BD4430E949C1AC35481
:10129E00DB4C288139814A815B81CD5BD4430E942E
:1012AE009C1ACD56DA4C688379838A839B83C35903
:1012BE00D543C756DB4C288139814A815B81C95998
:1012CE00D443CA01B9010E94641AC15FDA4C688323
:1012DE0079838A839B83CF50D543A7019601C3534D
:1012EE00DB4C688179818A819B81CD5CD4430E94DD
:1012FE009C1ACF55DB4C288139814A815B81C15ABA
:10130E00D4430E949C1ACF55DB4C288139814A81E7
:10131E005B81C15AD4430E949C1ACB55DB4C288169
:10132E0039814A815B81C55AD4430E949C1ACB55A0
:10133E00DB4C288139814A815B81C55AD4430E9496
:10134E009C1AC354DB4C288139814A815B81CD5B69
:10135E00D4430E949C1AC354DB4C288139814A81A4
:10136E005B81CD5BD4430E949C1AC956DA4C6883CC
:10137E0079838A839B83C759D543CF54DB4C28810D
:10138E0039814A815B81C15BD443C353DB4C688195
:10139E0079818A819B81CD5CD4430E949C1ACF5562
:1013AE00DB4C288139814A815B81C15AD4430E942A
:1013BE009C1ACF55DB4C288139814A815B81C15AF9
:1013CE00D4430E949C1ACB55DB4C288139814A812B
:1013DE005B81C55AD4430E949C1ACB55DB4C2881A5
:1013EE0039814A815B81C55AD4430E949C1AC354E9
:1013FE00DB4C288139814A815B81CD5BD4430E94CD
:10140E009C1AC556DA4C688379838A839B83CB59A1
:10141E00D543CB52DB4C288139814A815B81C55D36
:10142E00D443CB53DB4C688179818A819B81C55C27
:10143E00D4430E949C1AC156DA4C688379838A83FE
:10144E009B83CF59D543C354DB4C288139814A81C4
:10145E005B81CD5BD443CA01B9010E949C1A4B013A
:10146E005C01CB54DB4C288139814A815B81C55BA1
:10147E00D443CF55DB4C688179818A819B81C15AD7
:10148E00D4430E949C1ACF55DB4C288139814A8166
:10149E005B81C15AD4430E949C1ACB55DB4C2881E8
:1014AE0039814A815B81C55AD4430E949C1ACB551F
:1014BE00DB4C288139814A815B81C55AD4430E9415
:1014CE009C1A6B017C01A5019401C354DB4C68810D
:1014DE0079818A819B81CD5BD4430E949C1A9B01AA
:1014EE00AC01C701B6010E949C1ACD55DA4C688337
:1014FE0079838A839B83C35AD543CB51DB4C288196
:10150E0039814A815B81C55ED443CA01B9010E940B
:10151E00641AC955DA4C688379838A839B83C75AC8
:10152E00D543CB55DB4C288139814A815B81C55A25
:10153E00D443CA01B9010E949C1ACB55DB4C2881B9
:10154E0039814A815B81C55AD4430E949C1AC35685
:10155E00DB4C288139814A815B81CD59D4430E946D
:10156E009C1AC354DB4C288139814A815B81CD5B47
:10157E00D4430E949C1AC354DB4C288139814A8182
:10158E005B81CD5BD4430E949C1AC555DA4C6883AF
:10159E0079838A839B83CB5AD543A3019201CB5582
:1015AE00DB4C688179818A819B81C55AD4430E9424
:1015BE009C1AC354DB4C288139814A815B81CD5BF7
:1015CE00D4430E949C1AC155DA4C688379838A836E
:1015DE009B83CF5AD543CF55DB4C288139814A8125
:1015EE005B81C15AD443CA01B9010E949C1ACF55DE
:1015FE00DB4C288139814A815B81C15AD4430E94D8
:10160E009C1AC754DB4C288139814A815B81C95BA6
:10161E00D4430E949C1ACB55DB4C288139814A81D8
:10162E005B81C55AD4430E949C1ACB55DB4C288152
:10163E0039814A815B81C55AD4430E949C1AA50107
:10164E0094010E949C1ACD54DA4C688379838A8364
:10165E009B83C35BD543C354DB4C288139814A81BC
:10166E005B81CD5BD443C756DB4C688179818A811F
:10167E009B81C959D4430E949C1ACB51DB4C2881C3
:10168E0039814A815B81C55ED4430E949C1A6B01ED
:10169E007C01CF55DB4C288139814A815B81C15A4F
:1016AE00D443CB53DB4C688179818A819B81C55CA5
:1016BE00D4430E949C1A9B01AC01C701B6010E9443
:1016CE00641AC357DB4C288139814A815B81CD581E
:1016DE00D4430E949C1AC954DA4C688379838A8356
:1016EE009B83C75BD543C355DB4C288139814A8127
:1016FE005B81CD5AD443CF55DB4C688179818A8189
:10170E009B81C15AD4430E949C1AC554DA4C6883FB
:10171E0079838A839B83CB5BD543C952DA4C9881FC
:10172E00C75DD543C950DB4C9883C75FD443C852BD
:10173E00DA4CA881C85DD543C850DB4CA883C85F7E
:10174E00D443C752DA4CB881C95DD543C750DB4C80
:10175E00B883C95FD443C652DA4CE881CA5DD5431B
:10176E00C650DB4CE883CA5FD443C552DA4CF881CD
:10177E00CB5DD543CB50DB4CF883C55FD443C4520D
:10178E00DA4C2881CC5DD543CA50DB4C2883C65F2A
:10179E00D443CE018B5E954FCB5EDA4C9983888312
:1017AE00C551D543DE01AF56B34FC95EDA4CB9838E
:1017BE00A883C751D543FE01E35FF04FC75EDA4CF5
:1017CE00F983E883C951D5439E0127573E4EC55E26
:1017DE00DA4C39832883CB51D5438051964FC35E63
:1017EE00DA4C99838883CD51D543A85FB440CD5E42
:1017FE00DA4CB983A883C351D543E05FF9401F018A
:10180E00285E3E40C150DB4C39832883CF5FD443E2
:10181E00805E9341CF5FDA4C99838883C150D54364
:10182E000FE910E0C950DB4CE881F981C75FD44362
:10183E0081919191A191B191C950DB4CF983E883CB
:10184E00C75FD443C355DB4C88839983AA83BB837C
:10185E00CD5AD443C751DB4C288139814A815B81F3
:10186E00C95ED443BC01CD010E94631A6B017C0199
:10187E00C750DB4CA881B981C95FD4438D909D9030
:10188E00AD90BD90C750DB4CB983A883C95FD443DC
:10189E00C351DB4C288139814A815B81CD5ED443B3
:1018AE00C501B4010E94631AC357DB4C6883798368
:1018BE008A839B83CD58D4439B01AC01C755DB4C27
:1018CE00688179818A819B81C95AD4430E949C1A6E
:1018DE002B013C01CD5FDA4C288139814A815B8135
:1018EE00C350D543C701B6010E949C1A9B01AC019F
:1018FE00C301B2010E94631ACF56DB4C6883798311
:10190E008A839B83C159D443CB50DB4CE881F98148
:10191E00C55FD44381919191A191B191CB50DB4C94
:10192E00F983E883C55FD443C356DB4C8883998320
:10193E00AA83BB83CD59D443CF50DB4C2881398148
:10194E004A815B81C15FD443BC01CD010E94631A01
:10195E00C550DB4C288139814A815B81CB5FD443F2
:10196E000E949C1A2B013C01C95FDA4C28813981F7
:10197E004A815B81C750D543C357DB4C688179815F
:10198E008A819B81CD58D4430E949C1A9B01AC0145
:10199E00C301B2010E94631A2B013C01CD5CDA4CEB
:1019AE00288139814A815B81C353D543C701B60172
:1019BE000E949C1A9B01AC01C301B2010E94641AE1
:1019CE002B013C01CF5FDA4CA881B981C150D543C0
:1019DE006D917D918D919D91CF5FDA4CB983A883E6
:1019EE00C150D5439B01AC010E949C1AC357DB4CDE
:1019FE00688379838A839B83CD58D443A70196014C
:101A0E00C701B6010E949C1ACD5DDA4C288139813E
:101A1E004A815B81C352D5430E94981A6B017C01A7
:101A2E00CF56DB4C288139814A815B81C159D44321
:101A3E00CA01B9010E949C1AC15DDA4C2881398114
:101A4E004A815B81CF52D5430E94981A9B01AC010B
:101A5E00C701B6010E94641A6B017C01A3019201B9
:101A6E00C301B2010E949C1AC95CDA4C28813981EB
:101A7E004A815B81C753D5430E94981A9B01AC01E2
:101A8E00C701B6010E94641A9B01AC01C357DB4C1F
:101A9E00688179818A819B81CD58D4430E94631AD3
:101AAE00C150DB4CE881F981CF5FD44361937193D0
:101ABE0081939193C150DB4CF983E883CF5FD4437C
:101ACE00A5019401C351DB4C688179818A819B8188
:101ADE00CD5ED4430E94631AC357DB4C688379836F
:101AEE008A839B83CD58D443C355DB4C28813981DF
:101AFE004A815B81CD5AD443C751DB4C68817981D1
:101B0E008A819B81C95ED4430E94631ACF56DB4CF7
:101B1E00688379838A839B83C159D443C357DB4C33
:101B2E00288139814A815B81CD58D443C755DB4C1E
:101B3E00688179818A819B81C95AD4430E949C1AFB
:101B4E006B017C01CF56DB4C288139814A815B8148
:101B5E00C159D443CD5FDA4C688179818A819B81EA
:101B6E00C350D5430E949C1A9B01AC01C701B6011C
:101B7E000E94631ACF54DB4C688379838A839B83DC
:101B8E00C15BD4439B01AC010E94641ACB52DB4C67
:101B9E00688379838A839B83C55DD443C356DB4CAC
:101BAE00288139814A815B81CD59D443CF50DB4C9A
:101BBE00688179818A819B81C15FD4430E94631AB7
:101BCE00CB54DB4C688379838A839B83C55BD44378
:101BDE00CD5BDA4C288139814A815B81C354D54370
:101BEE00CF56DB4C688179818A819B81C159D44360
:101BFE000E949C1A6B017C01CB54DB4C28813981ED
:101C0E004A815B81C55BD443C550DB4C68817981C9
:101C1E008A819B81CB5FD4430E949C1A9B01AC01AD
:101C2E00C701B6010E94641A6B017C01C357DB4CDD
:101C3E00288139814A815B81CD58D443C95FDA4C02
:101C4E00688179818A819B81C750D5430E949C1AF5
:101C5E009B01AC01C701B6010E94631A2B013C0126
:101C6E009B01AC010E949C1AC754DB4C688379839C
:101C7E008A839B83C95BD443CB52DB4C2881398149
:101C8E004A815B81C55DD443C357DB4C6881798142
:101C9E008A819B81CD58D4430E949C1AC55CDA4C34
:101CAE00288139814A815B81CB53D5430E94981A92
:101CBE006B017C01CF54DB4C288139814A815B81D9
:101CCE00C15BD443CA01B9010E949C1A9B01AC01AD
:101CDE000E94641AC15CDA4C288139814A815B8189
:101CEE00CF53D5430E94981A9B01AC01C701B60190
:101CFE000E94631A6B017C01CF56DB4C288139811F
:101D0E004A815B81C159D443CA01B9010E949C1A10
:101D1E009B01AC010E94641AC95DDA4C288139819D
:101D2E004A815B81C752D5430E94981A9B01AC0130
:101D3E00C701B6010E94631A6B017C01C754DB4CCC
:101D4E00288139814A815B81C95BD443CA01B901BB
:101D5E000E94641AC95BDA4C288139814A815B8101
:101D6E00C754D5430E94981A9B01AC01C701B60116
:101D7E000E94631A6B017C01C55BDA4C28813981A4
:101D8E004A815B81CB54D543CB54DB4C688179813E
:101D9E008A819B81C55BD4430E949C1ACF53DB4C36
:101DAE00688379838A839B83C15CD443C15BDA4C9D
:101DBE00288139814A815B81CF54D543C357DB4C8F
:101DCE00688179818A819B81CD58D4430E949C1A67
:101DDE009B01AC01CF53DB4C688179818A819B8159
:101DEE00C15CD4430E94631A9B01AC010E94641A29
:101DFE00A30192010E949C1AC55FDA4C2881398199
:101E0E004A815B81CB50D5430E94981A9B01AC014D
:101E1E00C701B6010E94641AD1016D937D938D9313
:101E2E009C931397A5019401C755DB4C688179816A
:101E3E008A819B81C95AD4430E949C1ACF53DB4C92
:101E4E00688379838A839B83C15CD4439B01AC01F5
:101E5E00C353DB4C688179818A819B81CD5CD443ED
:101E6E000E949C1A4B015C019B01AC01C756DB4CD6
:101E7E00688179818A819B81C959D4430E949C1AB9
:101E8E00C753DB4C688379838A839B83C95CD443B5
:101E9E00C356DB4C288139814A815B81CD59D443AD
:101EAE00C755DB4C688179818A819B81C95AD4439D
:101EBE000E949C1ACF52DB4C288139814A815B816A
:101ECE00C15DD4430E949C1AC354DB4C28813981D6
:101EDE004A815B81CD5BD4430E949C1AC356DB4C76
:101EEE00688379838A839B83CD59D443C355DB4C56
:101EFE00288139814A815B81CD5AD443CF52DB4C44
:101F0E00688179818A819B81C15DD4430E949C1A2C
:101F1E00C752DB4C688379838A839B83C95DD44324
:101F2E009B01AC01C353DB4C688179818A819B8113
:101F3E00CD5CD4430E949C1A6B017C019B01AC01C9
:101F4E00C756DB4C688179818A819B81C959D443FC
:101F5E000E949C1AC352DB4C688379838A839B83CD
:101F6E00CD5DD443A7019601CF55DB4C68817981B5
:101F7E008A819B81C15AD4430E949C1A6B017C01B9
:101F8E009B01AC01C354DB4C688179818A819B81B2
:101F9E00CD5BD4430E949C1ACF51DB4C688379836E
:101FAE008A839B83C15ED443C753DB4C288139811E
:101FBE004A815B81C95CD443C756DB4C6881798109
:101FCE008A819B81C959D4430E949C1A9B01AC0102
:101FDE00CD5ADA4C688179818A819B81C355D5436C
:101FEE000E94631AC95ADA4C288139814A815B8171
:101FFE00C755D5430E94641AC15EDA4C6883798353
:10200E008A839B83CF51D543A5019401CF55DB4CD9
:10201E00688179818A819B81C15AD4430E949C1A1E
:10202E00CF55DB4C288139814A815B81C15AD4431B
:10203E000E949C1ACB55DB4C288139814A815B81E9
:10204E00C55AD4430E949C1ACB55DB4C288139814A
:10205E004A815B81C55AD4430E949C1A9B01AC01F4
:10206E00C15EDA4C688179818A819B81CF51D543DB
:10207E000E94631AC55ADA4C288139814A815B81E4
:10208E00CB55D5430E94631A4B015C01C356DB4C02
:10209E00288139814A815B81CD59D443C756DB4CA7
:1020AE00688179818A819B81C959D4430E949C1A87
:1020BE009B01AC01C501B4010E94641AC15ADA4CED
:1020CE00288139814A815B81CF55D5430E94631A9D
:1020DE004B015C01C352DB4C288139814A815B8103
:1020EE00CD5DD443C756DB4C688179818A819B8153
:1020FE00C959D4430E949C1ACB53DB4C2881398199
:10210E004A815B81C55CD4430E949C1A9B01AC0141
:10211E00C501B4010E94641ACD59DA4C2881398167
:10212E004A815B81C356D5430E94631A4B015C0101
:10213E00A7019601CF55DB4C688179818A819B81FD
:10214E00C15AD4430E949C1ACB55DB4C288139814D
:10215E004A815B81C55AD4430E949C1ACB55DB4CF5
:10216E00288139814A815B81C55AD4430E949C1AC9
:10217E00CB53DB4C288139814A815B81C55CD443CA
:10218E000E949C1A9B01AC01C501B4010E94641A05
:10219E00C959DA4C288139814A815B81C756D543AA
:1021AE000E94641A6B017C01CF51DB4C288139816E
:1021BE004A815B81C15ED443C756DB4C688179810D
:1021CE008A819B81C959D4430E949C1ACB51DB4C06
:1021DE00288139814A815B81C55ED4430E949C1A55
:1021EE009B01AC01C701B6010E94631A4B015C0151
:1021FE00C357DB4C288139814A815B81CD58D4434A
:10220E00CA01B9010E94641AA50194010E949C1A88
:10221E009058C559DA4C288139814A815B81CB5659
:10222E00D5430E94981ACD5EDA4CE881F981C351EC
:10223E00D5436193719381939193CD5EDA4CF9837B
:10224E00E883C351D543C356DB4C288139814A817B
:10225E005B81CD59D443C159DA4C688179818A8129
:10226E009B81CF56D5430E94631AC753DB4C2881FE
:10227E0039814A815B81C95CD4430E94641ACD586E
:10228E00DA4C288139814A815B81C357D5430E943C
:10229E00641A6B017C01C352DB4C288139814A815F
:1022AE005B81CD5DD443CB53DB4C688179818A81D0
:1022BE009B81C55CD4430E949C1A9B01AC01C70153
:1022CE00B6010E94631AC958DA4C288139814A81B5
:1022DE005B81C757D5430E94631A6B017C01CF51B6
:1022EE00DB4C288139814A815B81C15ED443CB515D
:1022FE00DB4C688179818A819B81C55ED4430E94C3
:10230E009C1A9B01AC01C701B6010E94641A6B01B5
:10231E007C01CB54DB4C288139814A815B81C55BC2
:10232E00D443CA01B9010E94641A9B01AC01C701D2
:10233E00B6010E949C1A9058C558DA4C28813981F2
:10234E004A815B81CB57D5430E94981ACB5EDA4CFB
:10235E00A881B981C551D5436D937D938D939D937E
:10236E00CB5EDA4CB983A883C551D543C355DB4C3C
:10237E00288139814A815B81CD5AD443CA01B90182
:10238E000E94641A9B01AC01C158DA4C68817981B4
:10239E008A819B81CF57D5430E94631AC755DB4C68
:1023AE00288139814A815B81C95AD4430E94981A87
:1023BE00C755DB4C288139814A815B81C95AD44388
:1023CE000E949C1A6B017C01CD57DA4C2881398111
:1023DE004A815B81C358D543CF54DB4C68817981E8
:1023EE008A819B81C15BD4430E949C1AC957DA4CE7
:1023FE00288139814A815B81C758D5430E94981A3A
:10240E009B01AC01C701B6010E94631A6B017C01EE
:10241E00C557DA4C288139814A815B81CB58D54327
:10242E00C301B2010E949C1AC157DA4C288139812E
:10243E004A815B81CF58D5430E94981A9B01AC010B
:10244E00C701B6010E94641AC95EDA4CE881F981AF
:10245E00C751D5436193719381939193C95EDA4CC1
:10246E00F983E883C751D543CD56DA4C288139819B
:10247E004A815B81C359D543CB52DB4C688179814C
:10248E008A819B81C55DD4430E94981A6B017C01A1
:10249E00C15FDA4C288139814A815B81CF50D543A7
:1024AE00C301B2010E949C1AC956DA4C28813981A7
:1024BE004A815B81C759D5430E94981A9B01AC0192
:1024CE00C701B6010E94631AC75EDA4CA881B981B2
:1024DE00C951D5436D937D938D939D93C75EDA4C11
:1024EE00B983A883C951D543A3019201C301B20197
:1024FE000E94641AC556DA4C288139814A815B8163
:10250E00CB59D5430E94981AC55EDA4CE881F98101
:10251E00CB51D5436193719381939193C55EDA4C00
:10252E00F983E883CB51D543C752DB4C28813981DF
:10253E004A815B81C95DD443C55DDA4C688179817E
:10254E008A819B81CB52D5430E94631AC156DA4CC5
:10255E00288139814A815B81CF59D5430E94631A04
:10256E006B017C01CF53DB4C288139814A815B8121
:10257E00C15CD443CB53DB4C688179818A819B81CA
:10258E00C55CD4430E949C1A9B01AC01C701B601E5
:10259E000E94641A9B01AC010E94641AA501940169
:1025AE000E949C1A9058CD55DA4C288139814A8167
:1025BE005B81C35AD5430E94981AC35EDA4CA88138
:1025CE00B981CD51D5436D937D938D939D93C35E0C
:1025DE00DA4CB983A883CD51D5435101BCE9AB1A6E
:1025EE00BEEEBB0AC955DA4C288139814A815B811E
:1025FE00C75AD543C754DB4C688179818A819B8148
:10260E00C95BD4430E949C1AC555DA4C2881398186
:10261E004A815B81CB5AD5430E94981A6B017C018B
:10262E00CF56DB4C288139814A815B81C159D44315
:10263E00CA01B9010E94641AA30192010E949C1A58
:10264E00C155DA4C288139814A815B81CF5AD543F5
:10265E000E94981A9B01AC01C701B6010E94631A31
:10266E00F50160837183828393835101F0E2AF1A87
:10267E00FCEEBF0AC954DA4C288139814A815B814C
:10268E00C75BD543CF56DB4C688179818A819B81AC
:10269E00C159D4430E949C1A6B017C01C554DA4C7B
:1026AE00288139814A815B81CB5BD543C357DB4C93
:1026BE00688179818A819B81CD58D4430E949C1A6E
:1026CE009B01AC01C701B6010E94631A9B01AC01CC
:1026DE000E94641AA30192010E949C1AC55FDA4CF3
:1026EE00288139814A815B81CB50D5430E94981A4B
:1026FE006B017C01C15FDA4C288139814A815B8193
:10270E00CF50D543C754DB4C688179818A819B8138
:10271E00C95BD4430E949C1ACD54DA4C288139816E
:10272E004A815B81C35BD5430E94981A9B01AC0121
:10273E00C701B6010E94641AD5016D937D938D93E6
:10274E009C93139701501109B4E02B0E311C011507
:10275E00110509F067C88E010F551D4FCF56DB4C82
:10276E001882C159D443C756DB4C1882C959D44379
:10277E00CF55DB4C1882C15AD443CB55DB4C188253
:10278E00C55AD443F12CE12CD12CC12CF801619106
:10279E007191819191918F019B01AC010E949C1AC4
:1027AE0020E030E040E05FE30E949C1A9B01AC0108
:1027BE006F2D7E2D8D2D9C2D0E94641AF62EE72EE8
:1027CE00D82EC92ECF57DB4C28813981C158D4431E
:1027DE0002171307D9F6CF56DB4C6883C159D44381
:1027EE00C756DB4C7883C959D443CF55DB4C88830D
:1027FE00C15AD443CB55DB4C9883C55AD443C353EB
:10280E00DA4C88819981CD5CD5430297DCF1C153B6
:10281E00DA4C2881CF5CD543C053DA4C3881C05D89
:10282E00D543CF52DA4C4881C15DD543CE52DA4CF6
:10283E005881C25DD5436F2D7E2D8D2D9C2D0E940E
:10284E00631A9F7720E030E048EC52E40E949C1A15
:10285E002F2D3E2D4D2D5C2D0E94981A2DEC3CEC0B
:10286E004CE45DE30E948F1A880F880B817091E013
:10287E008927A82FB0E0C355DB4CB983A883CD5A66
:10288E00D4430BC0B1E0C355DB4CB883CD5AD4430F
:10289E00C255DB4C1882CE5AD443FE01E758F44E93
:1028AE00C357DB4CF983E883CD58D4439E01235E96
:1028BE003A4F190169C06201730134E8E31A3DEF22
:1028CE00F30A8101CB56DB4C8880C559D443CA56D6
:1028DE00DB4C9880C659D443C956DB4CA880C759E7
:1028EE00D443C856DB4CB880C859D443D8016D9137
:1028FE007D918D919D918D01F301219131914191A8
:10290E0051913F010E949C1A9B01AC01682D792DBB
:10291E008A2D9B2D0E94641A862E972EA82EB92ED4
:10292E006E147F0419F7862F992DAA2DBB2DF60153
:10293E0080839183A283B383F4E04F0E511C370141
:10294E00CB57DB4C28813981C558D4432E153F0512
:10295E0009F0B1CF34E8231A3DEF330AC357DB4CED
:10296E0088819981CD58D4438496C357DB4C998383
:10297E008883CD58D443CB57DB4CA881B981C55839
:10298E00D443A215B30559F0FE01E35EFA4F3F01A1
:10299E00C357DB4C48805980CD58D4438CCFBE01F1
:1029AE006F51734ECE018758944E0E94A4169E010D
:1029BE002F51334EC357DB4C39832883CD58D44324
:1029CE00CE018B5D914EC354DB4C99838883CD5BD6
:1029DE00D443CF54DB4C99838883C15BD4437CC0F2
:1029EE003101620194EAC91A99EED90A8201C357DC
:1029FE00DB4CE880F980CD58D443CB56DB4C888035
:102A0E00C559D443CA56DB4C9880C659D443C956CF
:102A1E00DB4CA880C759D443C856DB4CB880C85984
:102A2E00D443D7016D917D918D919D917D01F801DA
:102A3E0020813181428153810E949C1A9B01AC01FD
:102A4E00682D792D8A2D9B2D0E94641A862E972E25
:102A5E00A82EB92E04581D4FC016D10611F7862F79
:102A6E00992DAA2DBB2DF30180839183A283B3836D
:102A7E00F4E02F0E311C24E0420E511CCD57DB4CDE
:102A8E0088819981C358D4434816590609F0A8CFB6
:102A9E00C357DB4CA881B981CD58D4439496C35704
:102AAE00DB4CB983A883CD58D443CF54DB4CE8819B
:102ABE00F981C15BD443E458FD4FCF54DB4CF9830D
:102ACE00E883C15BD443C757DB4C28813981C95891
:102ADE00D4432A173B0759F0CE01835E9A4F2C013F
:102AEE00CF54DB4C28803980C15BD44379CF2E0183
:102AFE0093E4491A93EE590A3201C354DB4C2880F1
:102B0E003980CD5BD44363018E010F551D4F71018A
:102B1E00CD52DA4C8880C35DD543CC52DA4C9880C6
:102B2E00C45DD543CB52DA4CA880C55DD543CA529D
:102B3E00DA4CB880C65DD543D7016D917D918D91EC
:102B4E009D917D01F80121913191419151918F011A
:102B5E000E949C1A9B01AC01682D792D8A2D9B2D0C
:102B6E000E94641A862E972EA82EB92ECF57DB4CB4
:102B7E0028813981C158D44302171307E9F6862FED
:102B8E00992DAA2DBB2DF60180839183A283B38349
:102B9E00F4E06F0E711C24E8221A2DEF320AC95789
:102BAE00DB4C88819981C758D4438615970509F067
:102BBE00AACF8E010F5F1F4FD2012D913D914D91E6
:102BCE005D912D01F80160817181828193810E9456
:102BDE00641AD8016D937D938D939D938D01C55786
:102BEE00DB4CE881F981CB58D443AE17BF0721F7F0
:102BFE00C353DA4C28813981CD5CD5432F5F3F4FCB
:102C0E00C353DA4C39832883CD5CD543C355DB4C93
:102C1E0088819981CD5AD443019711F40C943A01CD
:102C2E00C755DB4C88819981AA81BB81C95AD4438F
:102C3E00C154DA4CE881F981CF5BD543808391830F
:102C4E00A283B383CF52DB4C88819981AA81BB8149
:102C5E00C15DD44384839583A683B783C353DB4C72
:102C6E0088819981AA81BB81CD5CD443808791876D
:102C7E00A287B387C751DB4C88819981AA81BB811A
:102C8E00C95ED44384879587A687B787C351DB4C2B
:102C9E0088819981AA81BB81CD5ED443808B918B33
:102CAE00A28BB38BCF50DB4C88819981AA81BB81DB
:102CBE00C15FD443848B958BA68BB78BCF53DA4CE5
:102CCE0088819981AA81BB81C15CD543808F918F08
:102CDE00A28FB38FCB53DA4C88819981AA81BB81A5
:102CEE00C55CD543848F958FA68FB78FC753DA4CAB
:102CFE0088819981AA81BB81C95CD54380A391A3A8
:102D0E00A2A3B3A3C901C452DA4C0FB6F894DEBF26
:102D1E000FBECDBFDF91CF911F910F91FF90EF901E
:102D2E00DF90CF90BF90AF909F908F907F906F90DD
:0A2D3E005F904F903F902F90089592
:102D48002F923F924F925F926F927F928F929F92B3
:102D5800AF92BF92CF92DF92EF92FF920F931F93A1
:102D6800CF93DF93CDB7DEB764970FB6F894DEBF85
:102D78000FBECDBF788B6F877E836D8340E050E0B8
:102D88000F2EC12CD12CF0E8EF2EFFE3FF2EF02DF3
:102D98001BC04217530731F4CD92DD92ED92FC929D
:102DA800139704C010821182128213822F5F3F4F43
:102DB800149634962930310561F74F5F5F4F6C5D8B
:102DC8007F4F4930510529F0FB01DB0120E030E05D
:102DD800E0CF898B9A8B8B839C838B879C87898791
:102DE8009A8718861F82E985FA85C080D180E2809B
:102DF800F3802D813E812C5D3F4F3E872D878D814D
:102E08009E810B811C819A8389835901A7019601B0
:102E1800F80160817181828193810E94981AF8017A
:102E280061937193819391938F01A7019601E98131
:102E3800FA8160817181828193810E94981AE98167
:102E4800FA816193719381939193FA83E983EA15E7
:102E5800FB05E1F66F847888F4E26F0E711C2B8411
:102E68003C84298929833A893A83412C512C8F81C2
:102E780098858415950509F448C0F10180809180F2
:102E8800A280B380930124523109ED80FE8009812C
:102E98001A81CB80DC803C8B2B8BF6012191319100
:102EA800419151916F01C501B4010E949C1A9B0187
:102EB800AC01F80160817181828193810E94631A5B
:102EC800F80161937193819391938F01F701219197
:102ED8003191419151917F01C501B4010E949C1A21
:102EE8009B01AC01EB89FC896081718182819381AE
:102EF8000E94631AEB89FC89619371938193919382
:102F0800FC8BEB8B6E167F0641F6FFEF4F1A5F0ABC
:102F180029813A812C5D3F4F3A83298334E2630E3D
:102F2800711C84E2280E311C99E04916510409F0FD
:102F38009ECFEF81F8853196F887EF8329853A850A
:102F4800285D3F4F3A8729878B859C8504969C8707
:102F58008B87EB81FC81B496FC83EB832D853E85C2
:102F68003E832D838F819885099709F03CCF64961D
:102F78000FB6F894DEBF0FBECDBFDF91CF911F9182
:102F88000F91FF90EF90DF90CF90BF90AF909F9000
:102F98008F907F906F905F904F903F902F90089503
:102FA800CF93DF93CDB7DEB7A8970FB6F894DEBFFF
:102FB8000FBECDBF0E944B1A0F2EF4E7AF2EF8E0DC
:102FC800BF2EF02D0F2EF8EFCF2EF5E0DF2EF02DCF
:102FD8000F2EFCE7EF2EF3E0FF2EF02D0F2EFCE96D
:102FE8004F2EF8E05F2EF02D3E0189E2680E711C2D
:102FF8004099FECF88B1827088B90F2EF8EF8F2ED6
:10300800F5E09F2EF02D15C00E94851AF8018193D6
:103018008F013A943110F8CFF4E08F0E911C8A1486
:103028009B0439F40F2EFCE78F2EF3E09F2EF02D32
:103038001AC084016894332432F8E6CF0E94851AB6
:10304800F80181938F013A943110F8CFF4E08F0E94
:10305800911CC814D90439F40F2EF0E08F2EF1E03A
:103068009F2EF02D13C084016894332432F8E6CFE4
:103078000E94851AF80181938F013A943110F8CF94
:10308800F4E08F0E911C8E149F0429F0840168943B
:10309800332432F8EDCF88B18D6F88B924E738E052
:1030A80040E051E06CE773E088EF95E00E9467002C
:1030B8008093BC081DA21EA21FA218A6E4E7F8E090
:1030C800CE0101964C01DC014191519161917191C0
:1030D8004D935D936D937D93E415F505A9F788B13C
:1030E800827088B90EC0F80181918F010E948A1AF6
:1030F8003A943110F8CFF4E08F0E911C68147904DB
:1031080029F084016894332432F8EDCF8E010B5DE9
:103118001F4FF80181918F010E948A1A0615170521
:10312800C1F78091BC080E948A1A88B18D6F88B94E
:023138005FCF67
:10313A0010C00E94711A58F00E946A1A40F029F4CD
:10314A005F3F29F00C947F1A51110C94791A0C9450
:10315A00A01A0E94011A68F39923B1F3552391F337
:10316A00951B550BBB27AA2762177307840738F0EC
:10317A009F5F5F4F220F331F441FAA1FA9F335D049
:10318A000E2E3AF0E0E832D091505040E695001CFD
:10319A00CAF72BD0FE2F29D0660F771F881FBB1FB7
:1031AA00261737074807AB07B0E809F0BB0B802D95
:1031BA00BF01FF2793585F4F3AF09E3F510578F0C1
:1031CA000C947F1A0C94791A5F3FE4F3983ED4F377
:1031DA00869577956795B795F7959F5FC9F7880F95
:1031EA00911D9695879597F90895E1E0660F771FE7
:1031FA00881FBB1F621773078407BA0720F0621B78
:0E320A00730B840BBA0BEE1F88F7E095089546
:103218000FC00E946A1A38F00E94711A20F0952394
:1032280011F00C947F1A0C94A01A11240C94791A9A
:103238000E94011A70F3959FC1F3950F50E0551F36
:10324800629FF001729FBB27F00DB11D639FAA27F3
:10325800F00DB11DAA1F649F6627B00DA11D661F42
:10326800829F2227B00DA11D621F739FB00DA11D63
:10327800621F839FA00D611D221F749F3327A00D1D
:10328800611D231F849F600D211D822F762F6A2FB9
:1032980011249F5750409AF0F1F088234AF0EE0F1E
:1032A800FF1FBB1F661F771F881F91505040A9F74B
:1032B8009E3F510580F00C947F1A0C94791A5F3F59
:1032C800E4F3983ED4F3869577956795B795F79587
:1032D800E7959F5FC1F7FE2B880F911D96958795FF
:0432E80097F90895B5
:1032EC0011C00E946A1A38F00E94711A20F039F449
:1032FC009F3F19F426F40C94A01A0EF4E095E7FB0A
:10330C000C947F1AE92F0E94011A58F3BA1762071E
:10331C0073078407950720F079F4A6F50C94781AB6
:10332C000EF4E0950B2EBA2FA02D0B01B9019001D4
:10333C000C01CA01A0011124FF27591B99F0593F18
:10334C0050F4503E68F11A16F040A22F232F342F60
:10335C004427585FF3CF469537952795A795F040AE
:10336C005395C9F77EF41F16BA0B620B730B840BC3
:10337C00BAF09150A1F0FF0FBB1F661F771F881F7B
:10338C00C2F70EC0BA0F621F731F841F48F48795D3
:10339C0077956795B795F7959E3F08F0B0CF9395C5
:0E33AC00880F08F09927EE0F979587950895E2
:1033BA00990F0008550FAA0BE0E8FEEF161617063C
:1033CA00E807F907C0F012161306E407F50798F0A4
:1033DA00621B730B840B950B39F40A2661F0232BBD
:1033EA00242B252B21F408950A2609F4A140A69539
:0833FA008FEF811D811D089574
:1034020057FD9058440F551F59F05F3F71F0479593
:10341200880F97FB991F61F09F3F79F08795089578
:10342200121613061406551FF2CF4695F1DF08C097
:10343200161617061806991FF1CF869571056105B4
:04344200089408954D
:10344600092E0394000C11F4882352F0BB0F40F4AC
:10345600BF2B11F460FF04C06F5F7F4F8F4F9F4FEC
:023466000895C7
:1034680081E584B982E087B91AB815B818B81BB8CD
:0834780013B816B819B8089545
:10348000EC010E94A81A0E94A71ACE010E94A91A54
:06349000CE010E94A51A06
:103496000E945C1A0E94341A0E94941A0E94541ABE
:0234A600089587
:1034A8001CBC1DBC14B880E184B980E48CBD0895AF
:0E34B800109264001092610013BE15BE0895BC
:0E34C6005058BB27AA270E9476190C94231A8F
:0E34D40000240A941616170618060906089515
:0E34E20000240A941216130614060506089517
:0E34F000E894BB2766277727CB0197F908954C
:0C34FE0097F99F6780E870E060E0089597
:0A350A000CB407FEFDCF8EB5089546
:0A3514008EBD0CB407FEFDCF089534
:0A351E000E94DD1908F481E0089511
:0835280015BE1FBE80E00895EE
:083530000E949D180C94231A5F
:083538000E940C190C94231AE7
:063540009FEF80EC0895EE
:043546000C940000E1
:04354A000E94650076
:02354E000895DE
:023550000895DC
:023552000895DA
:103554000000803F0000803F0000803F000000002A
:103564000000000000000000000000000000000057
:043574000000000053
:02000004008278
:03000000A2DF0775
:00000001FF
